:020000040000FA
:10000000F018002025030000490300004B03000006
:100010004F030000530300005703000000000000DE
:100020000000000000000000000000005B03000072
:100030005D030000000000005F030000610300009A
:100040003F0300003F0300003F0300003F030000A8
:100050003F0300003F030000592300003F0300005E
:100060003F0300003F0300003F0300003F03000088
:100070003F0300003F0300003F0300003F03000078
:100080003F0300003F0300003F0300003F03000068
:100090002D2D00003F0300003F0300003723000028
:1000A0003F0300003F0300003F0300003F03000048
:1000B000B5260000A92400006F2800003F030000BF
:1000C0003F0300003F0300003F0300003F03000028
:1000D0003F030000311600003F1600003F03000000
:1000E0003F0300003F0300003F0300003F03000008
:1000F0008F3B00003F0300003F0300003F03000070
:100100003F0300003F0300003F0300003F030000E7
:100110003F0300003F0300008F3A0000073B000050
:100120003F0300003F0300003F0300003F030000C7
:10013000DFF80CD009F0F8FF004800478505000003
:10014000F01800200CB50020019000906C48006869
:1001500040F480306A49086000BF6948006800F4D4
:10016000003000900198401C0190009818B9019847
:10017000B0F5A06FF1D16248006800F4003010B112
:100180000120009001E0002000900098012843D158
:100190005C48006840F010005A4908600846006852
:1001A00020F0030008600846006840F00200086084
:1001B00053484068524948600846406848600846CD
:1001C000406840F4806048600846406820F47C1035
:1001D00048600846406840F4E810486008460068F7
:1001E00040F08070086000BF4548006800F0007073
:1001F0000028F9D04248406820F003004049486098
:100200000846406840F00200486000BF3C48406833
:1002100000F00C000828F9D10CBD10B5FFF792FFD3
:1002200010BD10B53648006840F001003449086040
:10023000084640683449084031494860084600682B
:10024000324908402E4908600846006820F48020A2
:1002500008600846406820F4FE0048604FF41F0024
:100260008860FFF7DAFF4FF000602949086010BD91
:1002700010B5002100200022214B5B6803F00C0127
:1002800021B1042906D0082928D107E0214B224CAE
:10029000236027E01F4B204C236023E0184B5B6852
:1002A00003F47010164B5B6803F48032022303EBF7
:1002B000904022B9194B4343174C23600DE0104B7B
:1002C0005B6803F4003323B1144B4343124C2360A7
:1002D00003E0104B4343104C236003E00D4B0E4CE6
:1002E000236000BF00BF064B5B68C3F303130C4CD5
:1002F000E15C094B1B68CB40074C236010BD00003C
:1003000000100240002002400000FFF8FFFFF6FE50
:1003100008ED00E000127A000000002000093D0016
:10032000040000200648804706480047FEE7FEE735
:10033000FEE7FEE7FEE7FEE7FEE7FEE7FEE7FEE795
:100340002302000031010000704700BFFEE700BF3C
:10035000FEE700BFFEE700BFFEE77047704770474B
:10036000FE480068401CFD490860FD48006820B157
:10037000FB480068401EFA490860704770B58AB0B3
:10038000F8480078F8498870F8480068012801D1D9
:10039000C87002E00020F449C87000240DE002F0AB
:1003A000C7F8F34800882DF8140001F09BFD81B2D6
:1003B00005A820F81410601CC4B20A2CEFDBED492C
:1003C0000888C11700EB11610912A0EB0121E64A70
:1003D0001172E8490888C11700EB1161090A5172CE
:1003E000002525E000241DE03DF81410601C3DF8B8
:1003F0001000814214DD3DF81460601C3DF81000CF
:100400002DF81400601C2DF8106005A830F8146059
:10041000611C30F8111020F81410611C20F81160D4
:10042000601CC4B2C5F10900A042DDDC681CC5B285
:10043000092DD7DBBDF80400BDF806100844BDF84F
:1004400008100844BDF80A100844BDF80C10084410
:10045000BDF80E100844062190FBF1F080B2ADF813
:100460000200BDF81810BDF81A000144BDF81C00C8
:100470000144BDF81E000144BDF820000144BDF850
:1004800022000844062190FBF1F081B2ADF816106D
:10049000BDF80200C11700EB11610912A0EB0121A8
:1004A000B14A1171BDF80200C11700EB1161090AD0
:1004B0005171BDF81600C11700EB11610912A0EBD4
:1004C00001219171BDF81600C11700EB1161090AF5
:1004D000D171BB2011468872002405E0A248005D5E
:1004E000A5490855601CC4B20B2CF7DB08F056FA7E
:1004F0000AB070BD10B501F0CFF9A048006820F037
:100500000F009E4908600846006840F00800086037
:100510009A480830006840F48070984908310860B3
:1005200097484068C0F31300954948600846406802
:1005300094490843924948600846C06840F46040C6
:10054000C8609148006820F470208F490860084610
:10055000006840F4403008608B480830006840F480
:10056000805089490831086001208849086088491D
:10057000C1F8B80185490839086000208549C1F8EB
:10058000B00110BD00240025002074490860FFF769
:1005900048FE482001F022F900F0E2FF7E4806F014
:1005A00008F87D4840684FF47A72B0FBF2F1B1F17F
:1005B000807F00D31DE021F07F40401E4FF0E022FD
:1005C000506150170F22002807DA13071F0E734BD4
:1005D00000F00F06361F9F5503E013071E0E704BE9
:1005E0001E5400BF00204FF0E022906107201061F0
:1005F00000BF01F009F841F61F4141F2873003F0D6
:1006000055FA4F21632003F090FA4FF4E13001F0E6
:100610001AF803F09AFBFFF76DFF55205249087056
:10062000AA20487002F0C0FD01F0B5F902F0E1FF28
:1006300002F086FF08F05EFA03F056F9594A517845
:10064000107802F0F9FEF2E3641C5748B4FBF0F1B5
:1006500000FB1140002846D1012154A002F002FF06
:100660005348006808B9012000E0002050490860A4
:1006700003F03AF902F064FF4A4A5178107802F028
:10068000DBFE4C48007800282DDD4A4800780A2817
:1006900029DA494801780078401C474A107003293C
:1006A00021D14448007802280CDD0020414908701F
:1006B00008F042F90122414801784148007807F0EA
:1006C00070F90DE0282007F061FA642001F0A2F82B
:1006D000282007F0B1F937480078401C35490870E8
:1006E000002035490870214810300068A8B90A2058
:1006F00001F090F800BF1D48103000680028FAD0C3
:100700000C2130A008F08AFE00BF184810300068A5
:100710000028FAD10A2001F07DF81448143000684E
:1007200060B90A2001F076F800BF10481430006864
:100730000028FAD027490C2008F056FA0B48183048
:10074000006848B90A2001F065F800BF0748183072
:1007500000680028FAD03FE043E000009C00002041
:10076000A00000206A000020AC0700202081214268
:10077000B801002072000020C0140020040C0140C9
:10078000001001400000303304140140BC0122423B
:100790000000224200802242B807002018ED00E04D
:1007A00000E400E0EC0200201FA107004000000070
:1007B000A0812242900000209100002093000020A0
:1007C00092000020D2BBB6FEC8FDC4BECDB7C8CBD8
:1007D00000000000D006002003F016FB012004F00A
:1007E00020FAF948006838B90A2001F013F8F648F1
:1007F000006808B908F0A0F8F448007801284ED144
:100800000020F2490870F2480078FD283BD1F148F9
:100810004078EF498978884217D1EE488078EC49D2
:100820004979884211D1EB48C078E94989798842F1
:100830000BD1E8480079E649C979884205D1E548F5
:100840004079E349097A88421AD00020E2490870C9
:100850000120E2490870DE488078DE494870DC48B3
:1008600040798870DA488079C870D948C0790871B1
:10087000D748007A48710121D94806F09BFB0EE069
:1008800008F05AF80BE0D2480078552802D102F05F
:100890007BF804E002F0EAF80720D2490870CF485C
:1008A000007801280FD10021CD4806F083FBCE4807
:1008B0000079CE4908700020CD49087008F03CF856
:1008C0000020C6490870CB48007801287CD101F08F
:1008D00062F8052000F04AFEBD484078AA2874D18D
:1008E000BB488078512871D027DC11286FD00BDCF1
:1008F0006ED2DFE800F06D576EAADFE5FDFCFBFA73
:100900006D6D6D6D6D6DF90036287DD00CDC302875
:100910007BD004DC122879D0202859D134E1312849
:1009200075D03528F9D1B3E1382871D0392870D085
:1009300040286FD05028F0D1D5E180286BD018DC4A
:10094000702869D00CDC612867D004DC542876D08C
:100950006028E2D1FAE1622872D06328DDD141E259
:1009600071286ED072286DD073286CD07528D4D1C0
:1009700094E2A12868D00CDC83287DD004DC812897
:100980007BD08228C9D1A8E2902877D0A028C4D1F2
:10099000B3E2A22873D0F02872D0F12871D0FF28DA
:1009A000BBD102E3002094490870944908808F4924
:1009B00008709349087093490870934908709349E7
:1009C000087000F0E8FF03E312E312E3A1E1BAE0EC
:1009D000ECE2002089490880012089490870002044
:1009E000824908708A490880794840790880084619
:1009F00000884FF6FF7101EA00208549088074489D
:100A000000790988084309E04EE1D4E0A6E011E14D
:100A100056E161E166E145E2FAE1ADE17C49088039
:100A20006B48C0787B49086008460168006801F09F
:100A300066F800BF6D4800780328FBD1C8E27EE16C
:100A4000BAE10AE214E21EE25AE200206B49088091
:100A500001206C4908700020644908706C490880C6
:100A60005B4840790880084600884FF6FF7101EA2C
:100A700000206749088005E034E216E23AE24AE2E3
:100A800056E27AE2524800790988084460490880B1
:100A90004F48C0785F4908600846006841425D4899
:100AA0000068404201F02BF800BF5048007803284E
:100AB000FBD18DE2464A1179D07807F048FB87E2F6
:100AC00000204E4908800120504908700020474905
:100AD00008703F48C0784F490860032002F083FD4A
:100AE0004C480068414204E022E016E012E00DE0CC
:100AF00009E04848006801F002F800BF3B48007870
:100B00000228FBD164E207F064F861E20020424968
:100B100008805DE208F085FE5AE22D480079303801
:100B20003E4908702A48C07861383D4908704FE254
:100B30002748C0783B490870254800794870244808
:100B40004079887044E22248C0783649C87020480D
:100B5000007908711E484079487139E20020264921
:100B600008702649088021490870254908702549E0
:100B70000870254908702549087000F00CFF06210F
:100B8000284801F03AFD23E21148C07818B100204E
:100B90002549086002E00120234908600C480079DB
:100BA00020B100202049091F086003E001201E49F0
:100BB000091F08600CE20648C07820B100201A49DD
:100BC0000839086035E031E03C812142970000207F
:100BD000CC0700205E020020710600209400002057
:100BE0000014004096000020940800206A000020B5
:100BF00099000020710000206B000020760000208A
:100C00006C0000206D0000206E0000206F000020AE
:100C10007400002078000020720000209907002056
:100C20009A07002064000020BC0122420120FE49F6
:100C30000860CDE10020FD4908604FF4967000F097
:100C4000E9FD0120FA49C1F8B0014FF4967000F0B7
:100C5000E1FD0020F54908604FF4967000F0DAFDE0
:100C60000120F349C1F8B0014FF4967000F0D2FDB5
:100C70000020EE4908604FF4967000F0CBFD012093
:100C8000EB49C1F8B0014FF4967000F0C3FD9FE14D
:100C9000E84B5A79DB78613BD9B2E64B1B79303BA4
:100CA000D8B207F04DFA93E1E24B5A79DB78613B19
:100CB000D9B2E04B1B79303BD8B207F0D0FB87E1CB
:100CC000DC4B5A79DB78613BD9B2DA4B1B79303B8C
:100CD000D8B206F066FE7BE1D64A1179D07808F0EA
:100CE000C1FB75E174E10020D3490870D349088045
:100CF000D3490870D3490870D3490870D3490870A4
:100D0000D349087000F047FE0421D24801F075FC79
:100D10005EE10020C8490870C8490880C8490870C9
:100D2000C8490870C8490870C8490870C84908709F
:100D300000F031FE0421C84801F05FFC48E1C748DB
:100D40000178C748007808F032FD41E10020BA4937
:100D50000870BA490880BA490870BA490870BA4997
:100D60000870BA490870BA49087000F014FEB14919
:100D7000C87808F0ABFC2BE10020AF490870AF4900
:100D80000880AF490870AF490870AF490870AF4993
:100D90000870AF49087000F0FEFD0120A34908600B
:100DA000642000F037FD0020A149C1F8B001042102
:100DB000AC4801F022FC0BE100209F4908709F49DC
:100DC00008809F4908709F4908709F4908709F4993
:100DD00008709F49087000F0DEFD0421A24801F070
:100DE0000CFCF5E00020944908709449088094496F
:100DF000087094490870944908709449087094499F
:100E0000087000F0C8FD0421984801F0F6FBDFE00F
:100E10008848C078AA280BD1012095490870002283
:100E2000944801789448007806F0BBFD14E0B7E1DF
:100E30008048C07802280FD10A208D49087002200E
:100E40007C494870702088700120C87071208871BA
:100E500001218A4806F0AEF8BAE07648C0788849A1
:100E60000870744800794870724840798870AFE023
:100E70007048C078834908706E48007948706D48A2
:100E800040798870A4E06B48C0786A49C870084609
:100E90000079087108464079487199E001207A4943
:100EA000087095E0FFF76AFA92E078490C2007F0A5
:100EB00029FE55207649087081204870BB2088742F
:100EC000002405E07148015D714AA01C1154641CA6
:100ED000102CF7D307F075FD7AE05649C87807F073
:100EE00096FD75E008F036FC6A490870022007F0AC
:100EF0008EFD6DE003F031FE6AE002F021FB67E059
:100F00004C4800794B49C97800EB012085B228464E
:100F100002F0E7FA5CE0474840794649097900EB7E
:100F2000012085B24349C878294602F0F0FA4FE023
:100F300001203E490860C82000F06CFC00203C49BC
:100F4000C1F8B001C82000F065FC012037490860F5
:100F5000C82000F05FFC00203549C1F8B001C8206E
:100F600000F058FC012031490860C82000F052FC14
:100F700000202F49C1F8B0012AE001202B49086068
:100F8000C82000F047FC00202949C1F8B001C82062
:100F900000F040FC012025490860C82000F03AFC20
:100FA00000202349C1F8B00112E011E000202249DD
:100FB0000870224908802249087022490870224995
:100FC0000870224908702249087000F0E4FC00BF54
:100FD00000BF1848807800F0F000802805D0154840
:100FE0008078702801D007F0A7FC00202A490870FB
:100FF00016E010484078022804D101211F4805F06E
:10100000D9FF0DE0002407E008210A4801F0C4FDE3
:101010000A2000F0FFFB641C032CF5D307F08CFCC6
:101020001E48007801283BE0B4012242B0812242F0
:1010300000802242CC0700206B00002076000020B8
:101040006A0000206C0000206D0000206E0000206F
:101050006F00002014000020180000209A070020D4
:10106000990700209B0700209F070020A30700206E
:101070009000002093000020920000200014004007
:101080009307002096070020E0060020DE140020D1
:10109000CB140020A7070020710000209900002039
:1010A0007ED100F078FC052000F060FAB648407868
:1010B00002280AD10021B54805F07CFFB448007829
:1010C000002801D107F038FC59E1AF4840782128C9
:1010D00014D15520AF49087002204870AA48807882
:1010E0008870A948C078C870A74800790871A648D8
:1010F000407948710120A849087040E1A64800786D
:1011000001281CD1A0484078222818D100219F48EE
:1011100005F050FF9C4880789E4988719A48C078B5
:10112000C871994800790872974840794872BB2085
:10113000887200209849087007F030FC1FE192483F
:101140004078402804D19049887807F04DFC16E19A
:101150008D48407841280FD15520904908708A4821
:10116000807888708848C078C8708748007908718E
:1011700085484079487102E183484078422810D17F
:101180008120864948708048807888717E48C07880
:10119000C8717D48007908727B4840794872EEE05A
:1011A000F0E07948407843280FD1BB207B49887410
:1011B0007548807888727448C078C872724800791F
:1011C0000873714840794873D9E07448007855280D
:1011D0001FD17248407881281BD17048807CBB2881
:1011E00017D169484078442813D10021674805F099
:1011F000E1FE65488078694988736348C078C873A0
:1012000061480079087460484079487407F0D9FB58
:10121000B5E05D484078822813D100205C49087011
:1012200000215A4805F0C6FE022404E05648005D3D
:101230005B490855641C072CF8D3002007F0E7FB36
:101240009DE05148407890280AD106204E494870C8
:1012500008214D4801F0A0FC0A2000F0DBFA8EE0E6
:1012600049484078032823D14748807801281BD17A
:101270004548C078012813D10021444805F09AFE62
:1012800041480079474908700020474908703E48A6
:101290000079552873D10821444801F07DFC6EE0A7
:1012A0000020414908706AE000203F49087066E06C
:1012B00035484078062828D133488078012820D145
:1012C0003148C078412803D02F48C0784F2814D126
:1012D00000212E4805F06EFE2B4800793149087038
:1012E00000203149087032480078012847D107F0C2
:1012F00023FB00202E49087041E000202A49087095
:101300003DE000202849087039E01F4840780C284B
:1013100032D11D48807801282AD11B48C078012885
:1013200022D1194800791F49087000201E49087011
:1013300017480078002813DD1548007809280DDDCE
:1013400002201C494870702088700020C8707020EE
:10135000887101210D4805F02DFE01E007F0ECFA3F
:1013600000200B4908700AE000200F49087006E0D1
:1013700000200D49087002E000200B490870002091
:1013800009490870FFF760B9940800200014004074
:1013900090000020C014002070060020CB14002014
:1013A000720600206A000020990000203307002008
:1013B00094000020CC0700205E49097811B3002179
:1013C0005D4A11705D49097801290FD100215B4AFE
:1013D00011705B49098841F00101594A11800021CF
:1013E000584A11705849127888540BE055490978C9
:1013F000C82907DA53490978491CC9B2514A117002
:10140000514A5054704770B504465048007800283F
:1014100009DD4F484D49097844544C480078401C38
:101420004A4908700AE0552C05D14948047001204A
:101430004649087002E0002044490870434800789B
:1014400044490978884273DB42480078401E40498D
:10145000085CBB2829D14048007830BB084640785A
:10146000FD2822D00020394908703B4908703849CE
:101470008978374AD2781144354A12791144344A6E
:1014800052798818C11700EB11610912A0EB0121F4
:10149000CDB22F488079A84203D101202F4908708E
:1014A00046E000202D49087042E029484078FD2898
:1014B00022D129480078F8B925488078082807DD26
:1014C00023488078234908700120234908702FE0C1
:1014D00000201E4908701F480078401E1C49085C07
:1014E000BB2825D100201C49087008201949087024
:1014F000174801F02FFA1BE017480078012812D195
:1015000014480078401E1249085CBB280BD100200B
:101510000E4908701049087008200E4908700C48E0
:1015200001F018FA04E000200C490870074908701F
:1015300070BD0000710600200A0200200B0200208E
:101540000008004096000020CC07002098000020F2
:1015500094080020950000209A00002099000020A7
:1015600010B54721002002F043FA10BD70B50446C3
:1015700000252546A9B2214805F0B2FF00201F49E9
:101580002431088000211D4805F0A8FF01211B48D7
:1015900005F0D6FF0121194805F00CFD00BF01211F
:1015A000164805F0C4FF0028F9D00021134805F0C3
:1015B00095FF0021114805F0FDFC70BD00BF010042
:1015C000A0F10100FBD170470D49086070470C483D
:1015D000006870470A48006808B901207047002079
:1015E000FCE708480068704706490968884203D943
:1015F00004490968401A00E000207047000C0040D0
:10160000A00000209C00002008B54FF4E06003F02B
:1016100005FD14208DF8000000208DF801008DF8E4
:1016200002008DF80300684603F0FDFC08BD0000D1
:101630000021654A117065490988C8B2704764493C
:101640000988C8B2704710B586B00446012144F23B
:10165000040005F01BF85D48001F05F089FF4FF4FA
:101660000070ADF8140003208DF8160018208DF8D6
:10167000170005A9574804F04DFD4FF48060ADF800
:10168000140004208DF8170005A9524804F042FD0B
:1016900001940020ADF80800ADF80A00ADF80C0088
:1016A000ADF810000C20ADF80E0001A94748001F4E
:1016B00005F0A1FF01214548001F06F028F8402150
:1016C0004248001F06F0FEF806B010BD10B586B007
:1016D00004460121480404F0E6FF0121212004F022
:1016E000D5FF0121082004F0E6FD2020ADF814000C
:1016F00003208DF8160018208DF8170005A936482C
:1017000004F008FD4020ADF8140004208DF8170007
:1017100005A9314804F0FEFC2D48001F05F028FF04
:1017200001940020ADF80800ADF80A00ADF80C00F7
:10173000ADF810000C20ADF80E0001A92448001FE0
:1017400005F059FF01212248001F05F0E0FF06B017
:1017500010BD01B502E00098401E009000980028DE
:10176000F9D108BD00BF1949091F098801F080019E
:101770000029F8D0C0F30801144A1180704700BF57
:101780001349091F098801F080010029F8D0C0F32E
:1017900008010F4A1180704700BF0D48001F0088E4
:1017A00000F020000028F8D009480088C0F30800A5
:1017B000704700B5034603E013F8010BFFF7D2FFB3
:1017C00018780028F8D100BD0A0200200438014032
:1017D0000444004000080140001401404FF0E021A3
:1017E000096921F004014FF0E0221161C21700EBFA
:1017F0005272C2F3C702154B1A701946097801EBF1
:101800004102C2EBC1114FF6FF7202EAC101104A58
:101810001180704701460E4A12884A434FF0E02378
:101820005A6100229A6101221A6100BF4FF0E02242
:10183000106900F001021AB100F48032002AF5D0DC
:1018400000224FF0E0231A619A617047FC000020EB
:10185000FE0000200E48806940F020000C4988619D
:101860000C4800686FF30F000A49086008460068DA
:1018700043F23331084307490860064808300068DE
:101880004FF2FF010840034908310860704700002B
:10189000001002400414014010B52748806940F050
:1018A0000400254988610846806940F00800886185
:1018B0000846806940F0100088610846806940F061
:1018C000200088610846806940F040008861084631
:1018D000806940F0010088611848406820F0E060AD
:1018E00016494860FFF7B6FF00F02AF800F06DF8DF
:1018F00000F014FA00F0EDFA00F05CFB00F07AFB67
:1019000047210A2000F0E4FD47214FF47A7000F0EF
:101910007DFF47214FF47A7000F0CCFF47214FF450
:10192000FA6002F083F800F036FD00F049FE02F0A4
:101930000CFA01F0D3FF10BD00100240000001407E
:10194000E348806940F04000E1498861E14800686F
:10195000E1490840DF49086008460068DF4908435C
:10196000DC490860DB4808300068DA490831086063
:101970000120DB490860DB49C1F8A801D8491431CE
:101980000860091D08600020D549091D0860D54977
:10199000C1F8AC01704710B500214FF0804005F050
:1019A00009FB6420D0490880091D0880091D0880B2
:1019B000091D08800120CA490860CA49C1F8A80168
:1019C0000021084601F05DFD10BDC148806940F46A
:1019D0000060BF4988610846806940F04000886126
:1019E0000846806940F001008861BA480068BF4934
:1019F0000840B849086008460068BD490843B54931
:101A00000860BC48406820F0C000BA4948600846F9
:101A1000406840F0800048600846406840F0400060
:101A200048606420B049083908800920091F0880EF
:101A3000AD481C38008840F06000AB491C39088074
:101A40000846008840F0080008800846008840F4F6
:101A5000C04008800846008840F400600880081DE7
:101A6000008840F06000091D08800846008840F0AA
:101A7000080008800846008840F4C04008800846F6
:101A8000008840F40060088097483438008840F0AF
:101A900080009549343908800846008840F01000DD
:101AA000088091481438008840F001008E491439AC
:101AB00008800846008840F010000880084600882A
:101AC00040F4807008800846008840F48050088008
:101AD00085482038008840F001008349203908807B
:101AE00081483438008840F001007F49343908804B
:101AF00032207D4908800020091D0880704770B59C
:101B000005460C460121880705F054FA214628466F
:101B100001F0B7FC002D0FDB642D00DD6425052DE1
:101B200000DA052501206E4908606F49091D0D8006
:101B30000020091F088012E015F1640F01DA6FF030
:101B4000630515F1050F01DD6FF0040501206449FF
:101B500008606842644908800020091D0880002C44
:101B600010DB642C00DD6424052C00DA0524012040
:101B70005B49083108605C4908310C800020091D70
:101B8000088014E014F1640F01DA6FF0630414F1BB
:101B9000050F01DD6FF00404012051490831086090
:101BA000604251490C3108800020091F08804E48CE
:101BB0001030008840F400404B491031088070BD5F
:101BC00070B504460D4600204B49088001204B4962
:101BD000087000204A4908704A4908800846058074
:101BE0004948046001680068FFF789FF70BD70B55F
:101BF00004460D46002040490880012043490870F2
:101C000000203F4908703F490880084605803E484B
:101C10000460006841423C4800684042FFF76FFFA3
:101C200070BD10B5044600203349088001203849B2
:101C3000087000203249087033480460032001F026
:101C4000D2FC3148016800684042FFF758FF10BDE0
:101C500010B5044600202849088001202D4908704D
:101C600000202749087028480460032001F0BBFCCD
:101C700025480068414224480068FFF740FF10BD36
:101C800010B5044620480460012023490870002054
:101C900019490880032001F0A6FC6420FFF7BAFD73
:101CA0000121880705F086F910BD10B500201A49FA
:101CB00008701149088012490870104908701349CA
:101CC00008701349087013490870FFF764FE10BDCF
:101CD000001002400418014000000FF033333003BD
:101CE000A001234200002342342C01400F0F0FF0CB
:101CF000B0B0B00B00000140760000206C00002066
:101D00006A00002074000020780000206D00002090
:101D10006E0000206F0000206B0000209948806951
:101D200040F00800974988619748006820F07F409C
:101D3000954908600846006840F0EE40086070472A
:101D400010B50120914908609149C1F8980104201B
:101D5000FFF70CFC00208D4908600420FFF706FC0B
:101D600000208B49C1F8980110BD10B500208749AB
:101D7000086001208649C1F898010420FFF7F6FBAE
:101D80000120824908600420FFF7F0FB10BD10B568
:101D900004461CB101207D49086002E000207B4917
:101DA000086001207949091F08600220FFF7DEFB67
:101DB00000207749C1F898010220FFF7D7FB10BD3A
:101DC00010B501207149091F08600220FFF7CEFB02
:101DD0006F48D0F81C01C4B200206C49091F08608C
:101DE0000220FFF7C3FB204610BD70B50446002556
:101DF0001BE004F080061EB101206449086002E087
:101E00000020624908606006040E01205F49091F36
:101E100008600220FFF7AAFB00205D49C1F8980185
:101E20000220FFF7A3FB681CC5B2082DE1DBFFF71A
:101E3000C7FF70BD70B5002401205449086000251B
:101E400017E06006040E01205049091F08600220B7
:101E5000FFF78CFB4E48D0F81C0108B1601CC4B2DF
:101E600000204A49091F08600220FFF77FFB681C19
:101E7000C5B2082DE5DB204670BD10B50446FFF75E
:101E80005FFF4620FFF7B1FF2046FFF7AEFFFFF7E9
:101E90006CFF10BD10B5FFF753FF4720FFF7A5FFFC
:101EA00000240EE0FFF7C6FF3A490855032C03D182
:101EB0000120FFF76CFF02E00020FFF768FF601CC5
:101EC000C4B2032CEEDBFFF750FF9620FFF7A2FC15
:101ED00010BD10B50120FFF7D0FF00202B490839B5
:101EE000086010BD2DE9F0470120FFF7C6FF102064
:101EF000FFF7C3FFC820FFF78DFCFFF7CBFF254896
:101F00000478407800EB0424204607F0E2FF824684
:101F100008F01AF807464FF033321F4B07F06AFFFC
:101F2000054608F024F81D4908600846006807F0D7
:101F3000DEFF81464846BDE8F08730B585B0002514
:101F4000142217A1684607F049FDFFF7CBFF85B2C1
:101F5000002410E00A2095FBF0F100FB1150303016
:101F6000C0B2C4F10E010DF801000A2095FBF0F09B
:101F700085B2601CC4B2052CECDB6846FFF719FC87
:101F800005B030BD00100240000C01409C81214290
:101F900000802142000100203333F33F0401002080
:101FA0006C69676874206973203A20202020206CB7
:101FB000780A00000C48806940F008000A498861EE
:101FC0000A48006880B20949086008460068084964
:101FD00008430649086005480830006840F470402E
:101FE000024908310860704700100240040C0140AB
:101FF0000000888870470020AF49086070470120C2
:10200000AD490860704710B5AC48007810B1AC48D5
:10201000007840B9FFF7BFFC0020AA4908700120F2
:10202000A949087018E10020A7490870A448007861
:102030006F280CD1A54800683230A5490860A34834
:1020400000683238A34908600020A34908709C4802
:10205000007877280CD19D48006832389C49086088
:102060009A48006832309B49086000209A490870FD
:1020700092480078E7280FD090480078F7280BD0D6
:102080008E480078EF2807D08C480078DF2803D0EE
:102090008A480078FB2809D18C4800681E388D4991
:1020A00008608A4800681E38894908608A480078B4
:1020B000022843D081480078F3280CD18348006877
:1020C0006430844908608148006864388049086049
:1020D00000208149087079480078F9280CD17B48A4
:1020E000006864307B490860784800686438784943
:1020F000086000207849087070480078FC280CD1EE
:102100007248006864307349086070480068643839
:102110006F49086000207049087068480078FE2800
:102120000CD16A48006864306A49086067480068F2
:10213000643867490860012067490870664800787C
:1021400001284BD05D480078CF280CD15F4800684B
:1021500064305F4908605D48006864385D49086024
:1021600000205D490870554800789F2803D05348E7
:102170000078DF280CD15548006864305449086065
:10218000524800686438534908600020524908707A
:102190004A4800783F2803D048480078BF280CD12F
:1021A0004A48006864304A49086048480068643812
:1021B00048490860002048490870404800787F2856
:1021C0000CD1424800686430414908603F480068CB
:1021D00064384049086002203F4908703748007859
:1021E000802815DA3548007800F0010080B93348BE
:1021F000007800F0180000280ADD0020354908604A
:1022000033490860FFF7C7FB0121344804F0D2FED0
:102210002A480078FF280FD1294800787F280BD161
:1022200000202C4908602A490860FFF7B4FB01210F
:102230002A4804F0BFFE02E0002029490860214836
:10224000007808B9012000E0002028B92048016882
:1022500020480068FFF753FC1A48007808B901F0DD
:10226000C8F910BDFFF76CFBFFF7AFFBFFF7F2FA01
:10227000FFF7C0FE00201B490870FFF7BCFE64207A
:10228000FFF7C8FA01200F49087013E015480078DD
:1022900070B115480078094908700020114908708C
:1022A0001248006808B9012000E000200F490860CA
:1022B000FFF7A9FEEAE70000800121425801002053
:1022C000590100206B0000206A00002078000020E7
:1022D000840000208000002088000020003401409D
:1022E0007C000020F5000020240A0020A08122426A
:1022F0002DE9F047A148006807F0F4FDA049086007
:102300000846006807F020FE06469E4A9E4B07F0EE
:10231000FFFC044600229D4B07F0F4FC804607F0CA
:1023200026FE974908600846006807F0F9FD9849BD
:102330000880BDE8F08710B59648006838B996481F
:10234000008820F0010094490880FFF7D1FF4FF486
:1023500000709249086010BD0120904908608D48C6
:1023600024380068B0B98E48007802280DDD0020BE
:102370008B4908708B480088401C8A4908808A482D
:102380000088401C8849088004E085480078401C8B
:102390008349087070470EB58448806940F0080092
:1023A000824988610846806940F040008861804821
:1023B000006820F00F007E4908600846006840F081
:1023C000080008607A480C30006840F00100784945
:1023D0000C3108607648001D006820F47F60744965
:1023E000091D08600846006840F4086008607048ED
:1023F0000C30006840F4C0606D490C3108606D48D5
:10240000006820F00F006B4908600846006840F043
:102410000300086067480C30006840F0010065491F
:102420000C3108600921012003F08AFF4FF400708D
:10243000019000208DF808000C208DF80900012083
:102440008DF80A0001A803F085FD4FF4A06002F0AA
:10245000E5FD17208DF8000002208DF80100032013
:102460008DF8020001208DF80300684602F0DBFDC4
:102470000021012003F064FF0120019001A803F076
:1024800069FD4FF4A06002F0C9FD06208DF8000040
:1024900002208DF8010001208DF802008DF8030064
:1024A000684602F0C0FD0EBD3B481030008800F0C9
:1024B000010020B131480068401C304908603648AE
:1024C0001030008820F00100334910310880704737
:1024D0007FB505460C460121022004F0E4F8ADF872
:1024E0000850ADF804400020ADF80A00ADF8060031
:1024F00001A9294804F002FA01221146264804F0F5
:1025000074FD4FF4A06002F089FD1D208DF80000DD
:1025100000208DF801008DF8020001208DF80300E5
:10252000684602F080FD00211B4804F043FD7FBD9A
:1025300010B50120204908600320FFF717F800209C
:102540001E49C1F880011448008840F0010012497A
:10255000088011481030008820F001000E49103129
:1025600008800020054908601E20FFF753F901206C
:10257000114908600520FFF74DF910BDAC0100209E
:10258000B401002085EB51B81E85FB3F00003440AC
:10259000B8010020248121420004004014040140BD
:1025A000B1010020720000207600002000100240DF
:1025B000000C01400018014080012342000023422A
:1025C0003848806940F040003649886136480068E4
:1025D00020F0F000344908600846006840F0300000
:1025E000086031480C30006840F002002E490C3180
:1025F000086001202D49086070472DE9F041074629
:1026000088460020294908600920FFF703F90120C6
:102610002749C1F884010420FFF7FCF84FF40C703F
:10262000FEF7A4FF00242EE0002528E0385D2841B5
:1026300000F0010676B900201C4908604FF4FA70DA
:10264000FEF794FF01201A49C1F884014FF4FA7093
:10265000FEF78CFF012E10D10020144908604FF4C2
:10266000FA70FEF783FF01201149C1F88401FFF7DA
:10267000D1F84FF44870FEF779FF681CC5B2082DF9
:10268000D4DB601CC4B24445CEDB0020074908609F
:102690004FF40C70FEF76AFF01200549C1F8840170
:1026A000BDE8F0810010024000180140840123427F
:1026B0000000234210B54FF08040008A00F0010076
:1026C00000280ED0082000F0F6FE9349087007207D
:1026D00000F0F1FE914908709148007810B1FFF7C1
:1026E00092FC8AE08F48007870B18F4800888F494B
:1026F0000988884208DD00208A49087003208C4937
:102700000870FFF748F978E08A48007870B1864889
:10271000008886490988884208DD002085490870BC
:10272000032083490870FFF736F966E08248007895
:1027300080B37D48008840F2262188420CDD0020CD
:102740007D4908707D490870022079490870FFF7BB
:1027500022F900F04EFF50E06F48007800F00800CA
:1027600080B976480078002847D000207249087068
:102770007249087002206E49087000F03AFFFFF7B6
:102780000AF93AE064480078FF2836D101206B4905
:10279000087032E0FFE76A48007830B3624800888A
:1027A00040F2262188420CDD00206549087063490B
:1027B000087002205E490870FFF7EDF800F019FF7D
:1027C0001BE05548007800F0100078B95B480078AD
:1027D00058B100205A4908705849087002205449DD
:1027E0000870FFF7D8F800F004FF06E04A480078C8
:1027F000FF2802D10120514908704FF08040008A23
:1028000020F001004FF08041088210BD7FB50546E1
:102810000C460121084603F046FFADF80850ADF81C
:1028200004400020ADF80A00ADF8060001A94FF001
:10283000804004F063F801221146900704F0D5FBB4
:102840004FF4E06002F0EAFB1C208DF8000000204D
:102850008DF8010001208DF802008DF80300684614
:1028600002F0E1FB0121880704F0A4FB7FBD35489D
:10287000008800F00100B0B133480078401C3249B4
:1028800008700846007805280DDD01202F490870E2
:102890002C481038008820F001002A49103908809F
:1028A00001202B4908702748008820F001002549A5
:1028B000088070477FB505460C460121042003F0CF
:1028C000F2FEADF80850ADF804400020ADF80A0063
:1028D000ADF8060001A91B48103804F00FF80122DA
:1028E00011461848103804F080FB4FF4A06002F045
:1028F00095FB1E208DF8000001208DF801008DF859
:1029000002008DF80300684602F08DFB01210D489E
:10291000103804F04FFB7FBD580100205901002002
:102920006B0000206C000020760000207400002066
:102930006A0000206D0000206E0000200C020020C4
:102940006F000020100800400A0200200B02002047
:102950009700002070B50024002200210023C278D7
:1029600000BF05E0CD1C455D1D44ABB24D1CE9B276
:102970009142F7DBDD43ECB2D51C455DA54202D1A7
:1029800001258F4E357070BD10B500248D48C0797B
:10299000BB286AD18B4989788A4AD2781144894AFE
:1029A00012791144874A52798818C11700EB1161D6
:1029B0000912A0EB0121CCB282488079A04251D10A
:1029C000814840787F494978884217D17E4880788D
:1029D0007C498978884211D17B48C0787949C97887
:1029E00088420BD17848007976490979884205D127
:1029F0007548407973494979884216D00120734956
:102A000008700020724908706E4840786E4948701E
:102A10006C48807888706B48C078C87069480079C5
:102A200008716848407948711FE0664880788028BE
:102A300002D105F0B3FF18E062488078812802D106
:102A400005F0BFFF11E05F488078822803D05D4821
:102A50008078832803D1002005F0D9FF05E005F038
:102A60006BFF02E000205949087010BD70B50026C8
:102A700058480078082803DA0020544908708AE092
:102A8000002482E04F48005D55287CD14D49E01D6F
:102A9000085CBB2877D10A46A11C525C494BE11C5B
:102AA000595C0A44211D595C0A44611D595C501847
:102AB000C11700EB11610912A0EB0121CEB219463A
:102AC000A01D085CB0425BD1002505E028193D49F6
:102AD000085C4855681CC5B2082DF7DB3948807979
:102AE000B04250D13848407836494978884217D1A9
:102AF0003548807833498978884211D13248C07886
:102B00003049C97888420BD12F4800792D4909797D
:102B1000884205D12C4840792A494979884216D003
:102B200001202A490870002029490870254840786A
:102B3000254948702348807888702248C078C8703A
:102B40002048007908711F48407948711BE01D48F2
:102B50008078802802D105F021FF14E019488078A0
:102B6000812802D105F02DFF0DE0164880788228DB
:102B700003D1002005F04BFF05E005F0DDFE02E08B
:102B8000002012490870601CC4B212480078C01FAF
:102B9000A042BFF677AF70BD70B504460D4629461A
:102BA000204600F035FD00200849087070BD70B562
:102BB00004460D462946204600F033FD70BD000056
:102BC00089000020CC0700205E0200207100002058
:102BD000710600209600002010B504462CB94FF471
:102BE0000041F94803F045FB04E04FF40041F6488A
:102BF00003F03DFB10BD00B589B00121084603F08C
:102C000045FD0121042003F041FD0121202003F0B6
:102C10003DFD0121ED4803F04EFB0120ADF8200001
:102C200048208DF8230008A9E94803F073FA022030
:102C3000ADF8200018208DF8230003208DF8220025
:102C400008A9E34803F066FA4FF40040ADF820000D
:102C500010208DF8230008A9DB4803F05BFA002060
:102C6000FFF7BAFF01214FF4EB1003F024FB012121
:102C7000480603F018FDD74802F066FC05A802F0EC
:102C800087FD00208DF81A0001208DF81B00002020
:102C90008DF81C0001208DF81D0000208DF81E000D
:102CA00001208DF81F0000208DF816008DF8170008
:102CB00002208DF8180004208DF819000520ADF8C9
:102CC000140005A9C34802F058FC00208DF80E003E
:102CD0008DF80F0001208DF810000020ADF80400E1
:102CE000ADF80600ADF80800ADF80A00ADF80C002C
:102CF00001208DF8110001A802F0C9FC1220B6498C
:102D00000860486000204872087201208872002024
:102D1000B249087000220221AE4802F0B7FF09B0A4
:102D200000BD10B50020FFF757FF10BD10B5012002
:102D3000AA49087000F08AFA10BDA6480830006859
:102D400000F0E05008B1012070470020FCE72DE9B9
:102D5000F04706460C4617469846DDF820904FF09F
:102D6000000A9D480760C0F8048000209A49087254
:102D7000487208468472224631460B3006F02EFE19
:102D80009549944802F072FD0546042D09D04FF094
:102D9000010A29468F4802F001FE012801D14FF0B7
:102DA000020ABAF1010F04DBB9F1000F01D089F872
:102DB00000505046BDE8F08710B5044621468548CE
:102DC00002F0ECFD10BD2DE9F04104460D4616461B
:102DD0000027032C10DA0AE021467E4802F0DEFDCF
:102DE000012801D1012706E02846FEF7E7FB300065
:102DF000A6F10106F0D100BF3846BDE8F08100B56C
:102E000000BFFFF79AFF0028FBD000BD10B50021DE
:102E1000704802F0A3FE10BD70B50546002495B1C0
:102E200000216C4802F09AFE044664B16C4A00210D
:102E3000684802F010FE6A48847A224600F10B01CD
:102E4000284606F0CBFD204670BD70B5044600252F
:102E500054B100215F4802F081FE054625B12246AB
:102E600000215C4802F0F7FD284670BD10B504460D
:102E7000C4F309040AB1102000E0002002460BB19F
:102E8000082000E00020034613B1C1F3C13000E088
:102E90000020014642EA44101843084380B210BDA6
:102EA00010B50446C4F309040AB1022000E0002072
:102EB00002460BB1042000E00020034613B1880352
:102EC000C00A00E00020014642EA443018430843AB
:102ED00010BD2DE9FF4705460E464FF0000A06B12A
:102EE0000DB94FF0010A3F48007800F00F000328A9
:102EF00001DD4FF0010A3B480078C0F30019BAF138
:102F0000000F19D000208DF80A008DF80B00012069
:102F10008DF80C000020ADF80000ADF80200ADF80F
:102F20000400ADF80600ADF8080001208DF80D0092
:102F3000684602F0ACFB0FE10020ADF8080001206C
:102F40008DF80D004FF00008002403E125480078BB
:102F500000F00F0030B101284CD0022876D00328B1
:102F600075D1ADE000208DF80B008DF80C0035F820
:102F700024004B4600221146FFF778FFADF802000F
:102F800005EB840148884B4600221146FFF76EFF8F
:102F9000ADF80600601CC0B20446B04224DA35F831
:102FA00024004B4600221146FFF760FFADF80000F9
:102FB00005EB840148884B4600221146FFF756FF77
:102FC000ADF8040015E000000008014000023000E8
:102FD00000140140006400404C0A002067020020F9
:102FE000600A0020660200200020ADF80600ADF85F
:102FF00004009CE001208DF80B0000208DF80C00EF
:1030000035F824004B4600221146FFF72FFFADF89C
:103010000200601CC0B20446B04207DA35F8240052
:103020004B4600221146FFF721FF00E00020ADF8DB
:103030000600601CC0B20446B04209DA35F824002C
:103040004B4600221146FFF711FF02E014E061E059
:103050000020ADF80000601CC0B20446B04207DAA0
:1030600035F824004B4600221146FFF7FFFE00E032
:103070000020ADF804005AE000208DF80B0001207C
:103080008DF80C0035F824004B4600221146FFF75E
:1030900007FF0746B8B2ADF80200380CADF80000E3
:1030A00005EB840148884B4600221146FFF7F8FEE5
:1030B0000746B8B2ADF80600380CADF8040036E0AB
:1030C00001208DF80B008DF80C0035F824004B46DC
:1030D00000221146FFF7E4FE0746B8B2ADF8020041
:1030E000380CADF80000601CC0B20446B04208DAEB
:1030F00005EB840148884B4600221146FFF7D0FEBD
:1031000000E000200746B8B2ADF80600380CADF874
:1031100004000CE00020ADF80200ADF80000ADF8AE
:103120000600ADF8040034464FF0010A00BF00BFAE
:103130008DF80A80684602F0AAFAB44202DA601CEE
:10314000C4B200E007E008F10100C0B280460D28DB
:1031500000DB00E0FAE600BFBDE8FF8770B504467B
:103160000E4615462660E5600021204600F066FA0E
:1031700070BD10B5F74A3221F748FFF7EFFFF74A65
:103180003221F748FFF7EAFFF64A3221F648FFF707
:10319000E5FFF64A3221F648FFF7E0FFF54A322113
:1031A000F548FFF7DBFF10BD10B50020F3490860BC
:1031B000FFF721FD0020F24908700721F148FFF7D1
:1031C00088FEFFF7AEFDFFF7D4FF10BD704738B59E
:1031D000002411E0EC480178DF4800F061FA00B902
:1031E0000CE0E9480078401CC0B2E7490870392873
:1031F00001DD30200870641C0A2CEBD300BF0024D2
:1032000006E06946D44800F079FA00B902E0641C8F
:10321000072CF6D300BF38BD10B586B0DB48006878
:10322000FEF7E2F940B9FEF7DCF96430D7490860EF
:10323000FFF7CCFFFFF7CBFFFFF7E8FD04461CB11B
:1032400001A8FFF702FE00BF06B010BD10B5D048C0
:10325000FFF7FBFDCE48C07C20B101280AD0022830
:1032600018D10FE0CA48827A00F10B01BA4800F089
:103270005DFA24E0C648827A00F10B01B84800F0FC
:1032800055FA1CE0C248827A00F10B01B84800F000
:103290004DFA14E0BE48C07C03280FDBBC48C07C5C
:1032A00006280BDCBA48C07CC01EBA4901EBC0003E
:1032B000B7490B310A6802604968416000BF00BF2E
:1032C000B348C07C062809DCB148C07CB24951F83B
:1032D0002000AA4909680843A849086010BD10B534
:1032E00001E0FFF7B3FFFFF791FD0028F9D110BD12
:1032F000AA4A10705170704738B5FFF7F0FF4FE0E1
:10330000FFF7EDFF002449E0A34850F824009B4953
:103310000968084000283FD0072C34D2DFE804F0C9
:10332000040E1A26332C2D0000E005E069468A4879
:1033300000F0E4F90028F8D100BF00BF03E09DF8D9
:103340000000FEF739F86946854800F0D7F90028F3
:10335000F5D118E003E09DF80000FEF754F8694647
:10336000834800F0CBF90028F5D10CE0894A517868
:103370001078FFF7BDFF06E005E08648007E0128D3
:1033800000D100E000BF00BF854850F824007B4911
:103390000968084079490860601CC4B2062CB3DD96
:1033A000764800680028ABD138BD70B504460D469C
:1033B00005E02078FFF700FD012800D103E0280098
:1033C000A5F10105F5D100BF70BD7CB5012530E048
:1033D000002508227349604800F0BCF9C4B214B15A
:1033E000FFF70DFD012508226E495F4800F0B2F994
:1033F000C4B25CB1FFF703FD01A800234FF42072B3
:10340000214600906748FFF7A2FC01250822654984
:10341000594800F09FF9C4B25CB1FFF7F0FC01A875
:1034200000234FF42872214600905E48FFF78FFC7E
:103430000125002DCCD17CBD7CB505460C46012074
:103440008DF804008DF805508DF80640FFF7D7FC85
:10345000002003464FF4F0720321009001A8FFF70B
:1034600076FC7CBD38B504460D46FFF7C8FC00204D
:1034700003464FF47072294600902046FFF767FC20
:1034800038BD7CB505460C46E8B28DF80400E8B2BC
:103490008DF80500E0B28DF80600E0B28DF8070067
:1034A000FFF7ADFC0020034620220421009001A874
:1034B000FFF74DFC7CBD014639B938484078374AA2
:1034C000127800EB022080B27047072902D13348FE
:1034D0004078F9E7082902D130480078F4E7002065
:1034E000F2E71CB5044603208DF80400200A8DF88D
:1034F0000500E0B28DF80600FFF781FC00200346CE
:10350000EF220321009001A8FFF721FC1CBD7CB530
:1035100005460C4604208DF804008DF80550200A5D
:103520008DF80600E0B28DF80700FFF768FC002078
:103530000346EF220421009001A8FFF708FC7CBDA0
:1035400010B54FF44D70FFF7CCFF6420FEF762F921
:10355000002433E0C40A0020740A0020F60A002088
:10356000840A0020280B0020940A00205A0B002017
:10357000A40A00208C0B0020B40A0020B80200200E
:1035800066020020C6020020E8020020E4020020BB
:10359000C00B0020D40B0020E8A10000C4020020D2
:1035A00068A20000BC02002041F658312046FFF717
:1035B000AEFF1E20FEF72EF9601CC4B20F2CF3DB09
:1035C00010BD1CB5044602208DF804008DF805409E
:1035D000FFF715FC00200346EF220221009001A80E
:1035E000FFF7B5FB1CBD10B504462046FFF7E9FF09
:1035F00010BD10B5002408E00020FFF7E2FF40F600
:10360000B830FDF7B3FF601CC4B2032CF4DB10BD6F
:1036100070B504460D462A462146064800F086F855
:1036200070BD70B504460D462A462146024800F09A
:103630007DF870BDB40A0020940A002070B50446DD
:103640000D4664B12068012809D90020A0602068D7
:10365000401E60602A462168E06806F0D1F970BD1E
:103660000146002069B10A68012A0AD9CA6842B134
:103670000B688A689A4204D2D1E900329A4200D299
:103680000120704730B5044600252046FFF7E8FFCB
:1036900020B1D4E90110884200D00125284630BD70
:1036A00070B504460D4600262046FFF7EBFF58B1E3
:1036B000A168481CA060E06845542168A068884261
:1036C00001D30020A0600126304670BD30B504460D
:1036D00000252046FFF7C4FF70B1D4E90001401E69
:1036E000814203D1A06838B1012505E0D4E9010188
:1036F000401C814200D00125284630BD70B50446EB
:103700000D46002685B12046FFF7E0FF60B16068F6
:10371000401C60602168884201D3002060606168BD
:10372000E068405C28700126304670BDF0B5074661
:103730000D461646002406E0295D3846FFF7B0FF27
:1037400000B904E0641C3000A6F10106F4D100BF0A
:103750002046F0BDF0B507460C461646002564B17C
:1037600006E061193846FFF7C9FF00B904E06D1C97
:103770003000A6F10106F4D100BF2846F0BD0000DC
:1037800000B587B001214FF4047002F07FFF4FF4C1
:10379000004002F0DFFE3020ADF8040000208DF87C
:1037A000070001A92E4802F0B5FC2E4801F0A4FC48
:1037B000002002908DF80C008DF80D004FF4602071
:1037C00004900020059001208DF8180002A92548DA
:1037D00001F0B9FC0121234801F0E1FC214801F08E
:1037E00000FD00BF1F4801F001FD0028FAD11D486F
:1037F00001F006FD00BF1B4801F007FD0028FAD1CB
:1038000007B000BD10B50446072301222146154824
:1038100001F031FD0121134801F001FD00BF02213B
:10382000104801F06DFE0028F9D00E4801F08AFD25
:1038300010BD2DE9F04107460C460025002608E0A2
:103840003846FFF7DFFF05440520FDF7E3FF701C56
:10385000C6B2A642F4DBB5FBF4F080B2BDE8F0815D
:1038600000100140002401402DE9F04107460C46BC
:103870000025002608E03846FFF7C4FF0544052070
:10388000FDF7C8FF701CC6B2A642F4DBB5FBF4F02E
:1038900080B2BDE8F0812DE9F0414C484C49086008
:1038A0004C494B48006806F01CF9494908604A48F1
:1038B0004A49086047494948006806F012F98046BD
:1038C00006F042FB06460022454B06F093FA0446FA
:1038D00006F04DFB41490860BDE8F08110B5FFF7E7
:1038E000DAFFFFF74DFF10BD70B503210E20FFF783
:1038F000BBFF0446204606F0F5FA06463748016845
:10390000304606F0EEF8054606F00AFB84B2204683
:1039100006F0E8FA05462E480168284606F044FB02
:1039200003D200202F49087013E0204606F0DAFA8F
:10393000064627480168304606F0CDF8054606F0F1
:10394000EFFA2849087008460078642801DD6420F1
:10395000087003210F20FFF787FF0446204606F07A
:10396000C1FA06461D480168304606F0BAF8054619
:1039700006F0D6FA84B2204606F0B4FA054614489A
:103980000168284606F010FB03D200201649087093
:1039900013E0204606F0A6FA06460D4801683046B8
:1039A00006F099F8054606F0BBFA0F49087008467C
:1039B0000078642801DD642008700A4800780B490B
:1039C000087009480078487070BD00000000404051
:1039D000F40200200000C84200CC0D41F00200209B
:1039E0000070A740F8020020F9020020EC0200203D
:1039F0003EB505460C460121082002F054FEADF804
:103A00000450ADF800400020ADF80600ADF802000B
:103A10006946B94802F072FF00220121B64803F05E
:103A2000E4FA0021B44803F0C5FA3EBD7FB505466F
:103A30000C460121102002F036FEADF80850ADF81A
:103A400004400020ADF80A00ADF8060001A9AB481B
:103A500002F054FF01221146A84803F0C6FA4FF4C1
:103A6000E06001F0DBFA36208DF8000000208DF8D0
:103A7000010003208DF8020001208DF80300684644
:103A800001F0D1FA01219D4803F094FA7FBD10B5F1
:103A900001219A4803F057FD38B10121974803F0FE
:103AA00063FDFFF729FCFFF790FC10BD7FB50546CD
:103AB0000C460121202002F0F6FDADF80850ADF8CB
:103AC00004400020ADF80A00ADF8060001A98C48BA
:103AD00002F014FF01221146894803F086FA4FF4E0
:103AE000E06001F09BFA37208DF8000003208DF88C
:103AF000010000208DF8020001208DF803006846C7
:103B000001F091FA7FBD10B501217D4803F01BFD46
:103B100050B101217A4803F027FD7A480078401C13
:103B2000C1B27948FFF738F810BD7FB505460C469D
:103B30000121480302F0AAFDADF80850ADF8044099
:103B40000020ADF80A00ADF806008DF80C0001A9C0
:103B50006E4802F0D3FE01216C4803F0F1FC012213
:103B600041216A4803F041FA2C208DF8000004201E
:103B70008DF801008DF8020001208DF803006846E1
:103B800001F051FA0021614803F014FA7FBD70B5CD
:103B90000026002501215D4803F0D5FC00287DD0DA
:103BA00001215A4803F0E0FC0021584803F002FAD2
:103BB0000020574908700320FFF715FD1420FDF77A
:103BC00029FEFDF7E8FE1E210846FDF798FF642058
:103BD000FDF720FEFDF7DFFE0820FFF76CFC4D49E6
:103BE00008700720FFF767FC4B49087049480078C8
:103BF000FF2808D1084600787F2804D1474800787C
:103C0000401C464908701E210846FDF778FF6420D5
:103C1000FDF700FEFDF7BFFE41480078012840D1C6
:103C2000002439E01E210846FDF769FF6420FDF7F6
:103C3000F1FDFDF7B0FE4FF4FA70FDF7EBFD3949E9
:103C40000C2004F05FFF0646012E24D11DBB36492F
:103C50000860C820FDF7DEFD00203449C1F8B0013E
:103C6000C820FDF7D7FD01202F490860C820FDF7C7
:103C7000D1FD00202D49C1F8B001C820FDF7CAFDD3
:103C8000012029490860C820FDF7C4FD002027490C
:103C9000C1F8B0016D1C641C062C00E02BE0C1DBF8
:103CA00008E01E210846FDF72AFFC820FDF7B2FDF7
:103CB000FDF771FE1948007880B9FFF79AFC0020E3
:103CC0001B490860124908701E210846FDF717FFBE
:103CD000FA20FDF79FFDFDF75EFE09E001200C498B
:103CE000087000200D4908700121880703F062F96F
:103CF00000200B49087070BD000C0040001000400F
:103D00000014004096000020CC0700200034014041
:103D10006B00002058010020590100200D020020F6
:103D2000E0060020DE140020B08122420080224202
:103D3000EC05002010B50120FDF76CFD10BD10B59D
:103D40004FF4FA70FDF766FD10BD10B54FF4E13089
:103D5000FDF7BCFCEC48806940F02000EA4988612E
:103D6000EA48006820F47020E849086008460068C6
:103D700040F440300860E5480C30006840F0100026
:103D8000E2490C31086010BD10B5002400BFE048C6
:103D9000008800F020000028F9D0DD4803F028FD5D
:103DA000C4B2204610BD70B505460E46002404E09E
:103DB000FFF7EAFF2855601CC4B2B442F8DB70BDBF
:103DC00010B51020D149103108600A20FDF722FDFE
:103DD0001020CE49143108606420FDF71BFD10202F
:103DE000CA491031086000BFFFF7CEFF5528FBD04D
:103DF0000321C848FFF7D7FFC64880784A2801D179
:103E0000012010BD0020FCE70120C3490870C34910
:103E1000087070470020C0490870C049087070479A
:103E200010B504462046FDF7AAFC10BD70B5054646
:103E30000E46002403E0285DFFF7F2FF641CB44245
:103E4000F9D370BD7CB50546284605F0EBFD044668
:103E5000FD208DF8000000208DF80100A01CC0B2EC
:103E60008DF8020001208DF8030000208DF8040079
:103E700005216846FFF7DAFF21462846FFF7D6FFFF
:103E80000421A448FFF78FFF03E00421A148FFF7B6
:103E90008AFFA048C0784128F7D104219D48FFF748
:103EA00082FF03E004219B48FFF77DFF9948C0781B
:103EB0004F28F7D17CBD7CB50546284605F0B2FDFC
:103EC0000446FD208DF8000000208DF80100A01CA4
:103ED000C0B28DF8020061208DF8030004208DF837
:103EE000040005216846FFF7A1FF21462846FFF799
:103EF0009DFF00218748FFF756FF7CBD1CB5044697
:103F0000FD208DF8000000208DF8010002208DF8C2
:103F1000020010208DF803008DF804400020804935
:103F2000C87005216846FFF781FF04217948FFF733
:103F30003AFF7848C07841280CD103217548FFF733
:103F400032FF74480078FC2804D1724881787448A4
:103F5000FFF729FF1CBD08B5FD208DF800000020EB
:103F60008DF8010001208DF8020011208DF803006A
:103F700004216846FFF75AFF04216648FFF713FF44
:103F800008BD10B5044666480078082821D2DFE84D
:103F900000F02004050F13171C1800BF614951F8E9
:103FA00024105F4AD27851F82200FFF74BFF10E04F
:103FB0005DA0FFF747FF0CE05FA0FFF743FF08E0BD
:103FC00000BF61A0FFF73EFF03E062A0FFF73AFFEA
:103FD00000BF00BF10BD1CB50446FD208DF80000D9
:103FE00000208DF8010002208DF8020051208DF88C
:103FF00003008DF8044005216846FFF717FF0421F0
:104000004448FFF7D0FE4348C07841280AD1042134
:104010004048FFF7C8FE3F48C078212802D15148E8
:10402000FFF749FF1CBD10B53D480078082869D24C
:10403000DFE810F068000800810289029602690436
:1040400071047A043648C07824285CD2DFE800F096
:104050001217232F3A454FFDFBFAF9F8F7F6F5F45E
:10406000F3F2F1F0EFEEEDECEBEAE9E8E7E6E5E498
:10407000E3E2E1E004213C48FFF7D8FE52E23221BE
:104080000846FDF79DFD39A0FFF7DCFE0421364808
:10409000FFF7CCFE46E232210846FDF7A8FD37A027
:1040A000FFF7D0FE04213048FFF7C0FE3AE250206F
:1040B000FDF7B7FD39A0FFF7C5FE04212A48FFF739
:1040C000B5FE2FE25020FDF7C3FD3CA0FFF7BAFE7E
:1040D00004212548FFF7AAFE24E2FDF7E6FD3FA0F4
:1040E000FFF7B0FE04212048FFF7A0FE1AE23220BD
:1040F000FDF7C6FD3FA0FFF7A5FE04211A48FFF714
:1041000095FE0FE2FEE305E20010024000140140BC
:1041100000440040E80400204C0300204D03002030
:10412000EC040020C0040020D3C3BBA7BEB2D2F46D
:10413000B3ACCAB100000000D3C3BBA7D3EFD2F425
:10414000B3ACCAB100000000CAB6B1F0BEDCCAB65A
:1041500000000000CAB6B1F0C4DAB2BFB4EDCEF3CD
:1041600000000000AD0300207D030020D0A1B3B506
:10417000C7B0BDF8D2D1CDEAB3C90000D0A1B3B564
:10418000BAF3CDCBD2D1CDEAB3C9A3ACB5C8B4FD97
:10419000CFC2D2BBB2BDD6B8C1EE0000D0A1B3B57C
:1041A000D7F3D7AACDEAB3C9A3ACB5C8B4FDCFC283
:1041B000D2BBB2BDD6B8C1EE00000000D0A1B3B5ED
:1041C000D3D2D7AACDEAB3C9A3ACB5C8B4FDCFC288
:1041D000D2BBB2BDD6B8C1EE00000000D2D1CDA393
:1041E000B3B5A3ACB5C8B4FDCFC2D2BBB2BDD6B8CF
:1041F000C1EE0000D1B0BCA3D2D1CDEAB3C9A3AC0B
:10420000B5C8B4FDCFC2D2BBB2BDD6B8C1EE0000B6
:1042100074E167E15AE14DE141E135E129E11DE158
:104220000FE102E1F4E0E7E0DEE0D1E0C4E0B7E076
:10423000A2E095E080E071E064E058E04BE03EE011
:1042400031E024E018E00CE0FFE70621C848FEF763
:10425000D4F9C8A0FFF7F6FD0421CE48FFF7E6FD2C
:1042600060E1012005F082F9CBA0FFF7EBFD04210E
:10427000C848FFF7DBFD55E1002005F077F9CDA038
:10428000FFF7E0FD0421C348FFF7D0FD4AE1082114
:10429000CF48FFF7BDF9CFA0FFF7D4FD0421BD48FB
:1042A000FFF7C4FD3EE10821D148FFF7B1F9D1A0E5
:1042B000FFF7C8FD0421B748FFF7B8FD32E1082138
:1042C000D448FFF7A5F9D4A0FFF7BCFD0421B148FD
:1042D000FFF7ACFD26E10821D748FFF799F9D7A0F1
:1042E000FFF7B0FD0421AB48FFF7A0FD1AE1002065
:1042F000DB490860DBA0FFF7A5FD0421A548FFF717
:1043000095FD0FE10020D649091F0860DEA0FFF7E8
:1043100099FD04219F48FFF789FD03E10120D04961
:104320000860E249C1F8B801E1A0FFF78BFD042164
:104330009848FFF77BFDF5E00020C949083908607F
:10434000E3A0FFF77FFD4FF4FA70FDF763FA012059
:10435000D649C1F8B40104218E48FFF767FDE1E0BA
:104360000120BF4908390860E1A0FFF76BFD042177
:104370008848FFF75BFDD5E00621E548FEF73DF9EB
:104380004FF4FA70FDF746FA0621E248FEF735F9D8
:10439000E1A0FFF757FD04217E48FFF747FDC1E08C
:1043A0000421E448FEF729F9E3A0FFF74BFD0421BF
:1043B0007848FFF73BFDB5E00421E848FEF71DF91A
:1043C000E7A0FFF73FFD04217248FFF72FFDA9E0AA
:1043D0000421EB48FEF711F9EAA0FFF733FD0421B1
:1043E0006C48FFF723FD9DE0F2A0FFF72BFD0421B1
:1043F0006848FFF71BFD95E0F9A0FFF723FD0321B7
:10440000012005F02FF804216248FFF70FFD89E035
:10441000F6A0FFF717FD04215E48FFF707FD002017
:10442000F8490870F84908707CE00A215020FDF72F
:10443000C7FBF6A0FFF706FD04215648FFF7F6FC80
:1044400070E004215348FFF7F1FC0A215020FDF7EA
:10445000CEFBAFF2D820FFF7F5FC63E05020FDF76C
:10446000E0FBF2A0FFF7EEFC04214A48FFF7DEFC78
:1044700058E05020FDF7ECFBF4A0FFF7E3FC04212B
:104480004448FFF7D3FC4DE0FDF70FFCAFF2B4203A
:10449000FFF7D8FC04213F48FFF7C8FC42E0322078
:1044A000FDF7EEFBF1A0FFF7CDFC04213948FFF743
:1044B000BDFC37E00221012004F0D4FFF3A0FFF798
:1044C000C1FC04213348FFF7B1FC2BE0022100209E
:1044D00004F0C8FFF0A0FFF7B5FC04212D48FFF75A
:1044E000A5FC1FE00421012004F0BCFFEDA0FFF7B4
:1044F000A9FC04212748FFF799FC13E004210020C0
:1045000004F0B0FFEAA0FFF79DFC04212148FFF76B
:104510008DFC07E0E9A0FFF795FC04211D48FFF79B
:1045200085FC00BF00BF0420E94908600421194848
:10453000FFF77CFC09E2E1A0FFF784FC04211548A9
:10454000FFF774FC01E2E3A0FFF77CFC0020AD491B
:104550000870AD49087004210E48FFF767FCF4E1CC
:10456000E2A0FFF76FFC04210A48FFF75FFCECE1D3
:1045700008030020B1A8BEAFC6F7D2D1B4F2BFAADB
:10458000A3ACB5C8B4FDCFC2D2BBB2BDD6B8C1EEE4
:10459000000000007D030020B5C0D5A2D2D1B4F246
:1045A000BFAAA3ACB5C8B4FDCFC2D2BBB2BDD6B80A
:1045B000C1EE0000B5C0D5A2D2D1B9D8B1D5A3AC57
:1045C000B5C8B4FDCFC2D2BBB2BDD6B8C1EE0000F3
:1045D000200300204C4544CFD4CABED2D1BFAAA3E9
:1045E000ACB5C8B4FDCFC2D2BBB2BDD6B8C1EE0027
:1045F00028030020BCC6CAB1CFB5CDB3D2D1B4F226
:10460000BFAAA3ACB5C8B4FDCFC2D2BBB2BDD6B8A9
:10461000C1EE000030030020BCC6CAB1CFB5CDB397
:10462000D2D1B9D8B1D5A3ACB5C8B4FDCFC2D2BB35
:10463000B2BDD6B8C1EE0000380300204C4544CFCF
:10464000D4CABEBEE0C0EBD2D1CDEAB3C9A3ACB5EB
:10465000C8B4FDCFC2D2BBB2BDD6B8C1EE00000017
:10466000BC012242D7F3B2E0CCE1CABEB5C6D2D17A
:10467000B4F2BFAAA3ACB5C8B4FDCFC2D2BBB2BD21
:10468000D6B8C1EE00000000D3D2B2E0CCE1CABE81
:10469000B5C6D2D1B4F2BFAAA3ACB5C8B4FDCFC2DF
:1046A000D2BBB2BDD6B8C1EE00000000000022426D
:1046B000CCE1CABEB5C6D2D1B9D8B1D5A3ACB5C8C4
:1046C000B4FDCFC2D2BBB2BDD6B8C1EE000000006F
:1046D000B7E4C3F9C6F7D2D1B4F2BFAAA3ACB5C848
:1046E000B4FDCFC2D2BBB2BDD6B8C1EE000000004F
:1046F000B7E4C3F9C6F7D2D1B9D8B1D5A3ACB5C820
:10470000B4FDCFC2D2BBB2BDD6B8C1EE000000002E
:104710004003002046030020B3B5C5C6D2D1CFD494
:10472000CABEA3ACB5C8B4FDCFC2D2BBB2BDD6B869
:10473000C1EE000004030020CBEDB5C0C5C5B7E74E
:10474000CFB5CDB3D2D1B4F2BFAAA3ACB5C8B4FD36
:10475000CFC2D2BBB2BDD6B8C1EE0000FC02002071
:10476000CDBCC6ACB7ADD2B3CDEAB3C9A3ACB5C866
:10477000B4FDCFC2D2BBB2BDD6B8C1EE00000000BE
:104780009B070020B5F75B3D7469616F325DB9E24C
:10479000B5B55B3D64616E67335DCEBBD2D1BCD332
:1047A00031A3ACB5C8B4FDCFC2D2BBB2BDD6B8C17F
:1047B000EE000000BBB6D3ADCAB9D3C3B1B1BEA938
:1047C000B0D9BFC6C8DA5B3D726F6E67325DB4B4F4
:1047D000D3EFD2F4D6C7C4DCD0A1B3B5000000003B
:1047E000D4ADB5D8B5F4CDB700000000BAC3B5C498
:1047F000A3ACBDE1CAF8B1BEB4CED3EFD2F4BFD8FA
:10480000D6C600004C0300204D03002020D0A1B3E9
:10481000B5C7B0BDF8D2D1CDEAB3C9A3ACB5C8B461
:10482000FDCFC2D2BBB2BDD6B8C1EE00D0A1B3B5E8
:10483000D7F3D7AAD2D1CDEAB3C9A3ACB5C8B4FDDA
:10484000CFC2D2BBB2BDD6B8C1EE0000D0A1B3B5C5
:10485000D3D2D7AAD2D1CDEAB3C9A3ACB5C8B4FDDF
:10486000CFC2D2BBB2BDD6B8C1EE0000D0A1B3B5A5
:10487000D1B0BCA3D2D1CDEAB3C9A3ACB5C8B4FD05
:10488000CFC2D2BBB2BDD6B8C1EE0000CFF2D3D2F8
:10489000D7AACDE400000000BDFBD6B9D3D2D7AA79
:1048A00000000000CFF2D7F3D7AACDE4000000004B
:1048B000BDFBD6B9D7F3D7AA00000000B6D4B2BB6F
:1048C000C6F0A3ACCED2C3BBCCFDC7E50000000050
:1048D0008C030020BDF8C8EBD0DDC3DFA3ACCBE672
:1048E000CAB1CEAAC4FAB7FECEF10000C7EBB0B28F
:1048F000BEB2A3ACC2E9B7B3C4FAD4D9CBB5D2BB6C
:10490000B1E9000018E0EEA0FFF79CFA0421F1489D
:10491000FFF78CFA19E0AFF2C470FFF793FA0421A5
:10492000EC48FFF783FA10E0E5A0FFF78BFA0421CB
:10493000E848FFF77BFA08E0AFF2E070FFF782FA91
:104940000421E448FFF772FA00BF00BF10BD2DE953
:10495000F04399B08046894616461F46FD208DF8E3
:10496000000015208DF803008DF804808DF8059067
:104970008DF8066056B900208DF8010004208DF8EE
:10498000020007216846FFF751FA1CE001208DF86C
:104990000700384605F046F8044600208DF801006F
:1049A000601DC0B28DF80200002505E0795D05F1BB
:1049B00008000DF800106D1CA542F7D304F10801A2
:1049C0006846FFF733FA0421C348FFF7ECF9C24801
:1049D000C07841280ED10321BF48FFF7E4F9BE4853
:1049E0000078FC2806D1BC488178BC48FFF7DBF989
:1049F000FFF719FB19B0BDE8F08308B5FD208DF86D
:104A0000000000208DF8010001208DF80200212017
:104A10008DF8030004216846FFF708FA0421AE4828
:104A2000FFF7C1F9AC48C078412803D10421AC4854
:104A3000FFF7B9F908BD10B5AA48007800287BD067
:104A4000FFF783F9A8A0FFF7FDF9B148006808B99E
:104A5000012000E00020AE490860FFF7CEFFA0482B
:104A6000C0784F2878D1FFF765F90521A948FFF7ED
:104A7000DDF904219848FFF796F99748C078412856
:104A800063D103219448FFF78EF993480078FC28FE
:104A900062D1914881789148FFF785F98F48007875
:104AA00021284AD121219C48FFF7C0F904218A48D6
:104AB000FFF779F904218848FFF775F900BF8648A8
:104AC000C0784F28FBD192480068C0439349C1F891
:104AD000A801FFF734F927E005219148FFF7A6F96F
:104AE00004217D48FFF75FF97B48C07841281BD13E
:104AF0008748001F0068C0438849C1F8A40103210A
:104B00007548FFF750F974480078FC280CD18048AC
:104B10000068C0438149C1F8A8016F4881786F4897
:104B2000FFF741F9FFF77FFA7E4800780028D3D1DC
:104B300004217D48FFF77AF90EE07548001D0068F2
:104B4000C0437649C1F8AC0106E07148001D006819
:104B5000C0437249C1F8AC0110BD1FB573A103C9B0
:104B6000CDE9020173A103C9CDE900010020734919
:104B7000086001206B4908705A490870082168468E
:104B8000FEF70AF84FF47A70FCF744FE4FF47A709F
:104B9000FCF740FE3CE005216148FFF747F904219E
:104BA0004D48FFF700F90A216548FFF73FF9042156
:104BB0004948FFF7F8F8082102A8FDF7EDFF46483D
:104BC000C07841281BD15248001F0068C043534998
:104BD000C1F8A40103214048FFF7E5F83E480078FA
:104BE000FC280CD14A480068C0434C49C1F8A801D0
:104BF000394881783948FFF7D6F8FFF714FA0421CD
:104C00003548FFF7D0F8002046490870354908704C
:104C10004A4801680068401C484A10600429BADB11
:104C20001FBD10B50446FFF790F846A0FFF70AF93C
:104C3000D4B950A301221F210320FFF788FE0421CD
:104C40005348FFF7F3F804212348FFF7ACF803E0DB
:104C500004212148FFF7A7F81F48C0784128F7D161
:104C60004CA0FFF7EFF82AE025E042A301221F2124
:104C70000320FFF76CFE04214548FFF7D7F8042115
:104C80001548FFF790F803E004211348FFF78BF86D
:104C90001148C0784128F7D110480078012807D181
:104CA0000E48C078192803D141A0FFF7CBF802E0E5
:104CB00046A0FFF7C7F81B4800780028D5D110BDE3
:104CC000B6D4B2BBC6F0A3ACC7EBD4D9CBB5D2BB7C
:104CD000B1E900007D030020E8040020EC0400207E
:104CE000F20400204D030020D3EFD2F4CAB6B1F095
:104CF000B2E2CAD42CC7EBB7A2D3EFD2F4BBBDD07B
:104D0000D1B4CAA3ACD3EFD2F4BCDDCABB0000005F
:104D1000A88122424E030020570300200080224237
:104D2000780300204C030020530300205506200187
:104D3000000021BB55061001000011BB8C030020B0
:104D400081030020D6C7C4DCD3EFD2F4C8FDBACFAC
:104D5000D2BB5B3D7969315DB2E2CAD4A3ACC7EB8B
:104D6000B7A2BBBDD0D1B4CA20D3EFD2F4BCDDCA48
:104D7000BB000000C4A3BFE9BBBDD0D1B3C9B9A675
:104D8000A3ACC7EBB7A2D3EFD2F4D6B8C1EE000004
:104D900090030020B1BEB4CEC8FDBACFD2BB5B3DFC
:104DA0007969315DB2E2CAD4CDEAB3C9000000002E
:104DB000BFC9B0B4CFC2B0B4BCFC5333D4D9B4CEA5
:104DC000BDF8C8EBB2E2CAD400000000C7EBD4D9EA
:104DD000B4CEBBBDD0D1C4A3BFE920D3EFD2F4BCC5
:104DE000DDCABB0010B58448007840B9FCF7D3FD9C
:104DF000002082490870012081490870F6E00020F7
:104E00007F4908707C480078E72807D07A48007806
:104E1000F72803D078480078EF280BD1794800684C
:104E2000C0F114007849086076480068C0F11400A9
:104E30007649086076480078022853D06E4800789A
:104E4000F32803D06C480078FB280ED16D48006829
:104E5000643040426C4908606A480068C0F16400F0
:104E60006A49086000206A49087063480078F92898
:104E700003D061480078FD280ED162480068643094
:104E80004042614908605F480068C0F164005F49C2
:104E9000086000205E49087057480078FC280ED151
:104EA00058480068643040425749086055480068D7
:104EB000C0F16400554908600020554908704E480B
:104EC0000078FE280ED14F480068643040424E49B9
:104ED00008604C480068C0F178004C490860012027
:104EE0004B4908704A480078012853D0424800785E
:104EF000CF280ED1434800686430404243490860DF
:104F000040480068C0F164003F4908600020404903
:104F10000870394800789F2803D037480078DF2888
:104F20000ED138480068643040423849086035483E
:104F30000068C0F1640034490860002034490870FA
:104F40002D4800783F2803D02B480078BF280ED189
:104F50002C480068643040422C49086029480068A9
:104F6000C0F16400284908600020294908702248DF
:104F700000787F280ED123480068643040422349DE
:104F8000086020480068C0F178001F4908600220CE
:104F90001F49087018480078FF2817D11C4800786E
:104FA000B8B91C4801680068401C1A4A1060B1F585
:104FB0007A7F0EDD002011460860FCF7ECFC002033
:104FC0001549087004200E49087002E000201149BC
:104FD00008600A48007808B9012000E0002028B9DC
:104FE0000A48016808480068FCF789FD0A4800780B
:104FF00008B9FEF7FEFA10BD580100204605002052
:105000006A0000207800002080000020840000203A
:10501000880000207C0000206B0000203149014303
:10502000314A1160704770B5002100230F22C47807
:1050300004B32D4C246804F4E064C4F5E064210A50
:10504000C1F10403CA40447804FA03F1847814409F
:1050500021430901254C0678A155047804F01F0569
:105060000124AC4005786D11AD0005F1E025C5F8CF
:10507000004109E0047804F01F050124AC401C4DF8
:105080000678761145F8264070BD1A4A0A40024358
:10509000154B1B1F1A60704739B1134A121D126855
:1050A0000243114B1B1D1A6006E00F4A121D1268C5
:1050B00082430D4B1B1D1A607047042808D14FF026
:1050C000E021096941F004014FF0E022116107E09D
:1050D0004FF0E021096921F004014FF0E022116155
:1050E000704700000000FA050CED00E000E400E06D
:1050F00080E100E080FFFF1F10B50446FA488442BB
:1051000008D10121401501F0DBFA0021601501F002
:10511000D7FA17E0F548844208D10121001501F0C3
:10512000CFFA0021201501F0CBFA0BE0F0488442C1
:1051300008D10121C80301F0C3FA00214FF4004057
:1051400001F0BEFA10BD30B50246002000235068C1
:10515000E84C20400D790C6844EA05242043506057
:105160009068E54C2040D1E902542C434D7944EA43
:10517000450420439060D06A20F470000C7C641ECB
:10518000E4B2234340EA0350D06230BD0021016005
:10519000017141718160C16001210174704721B1C9
:1051A000826842F00102826003E0826822F001021C
:1051B0008260704721B1826842F48072826003E0AD
:1051C000826822F480728260704710B50023CBB2EF
:1051D0001AB144681C43446002E044689C43446044
:1051E00010BD816841F008018160704701460020D0
:1051F0008A6802F008020AB1012000E0002070472E
:10520000816841F0040181607047014600208A688E
:1052100002F004020AB1012000E00020704721B131
:10522000826842F4A002826003E0826822F4A00255
:1052300082607047014600208A6802F480020AB149
:10524000012000E00020704710B50A46002100232D
:10525000416821F46041531E41EA4331416010BD71
:1052600021B1426842F40062426003E0426822F4E5
:10527000006242607047F0B504460D4600200021F0
:10528000092D11DDE068A5F10A0606EB46070726A1
:1052900006FA07F18843A5F10A0606EB460603FA6B
:1052A00006F10843E0600CE0206905EB450707269E
:1052B00006FA07F1884305EB450603FA06F10843B1
:1052C0002061072A0FDA606B561E06EB86071F2641
:1052D00006FA07F18843561E06EB860605FA06F124
:1052E0000843606322E00D2A0FDA206BD61F06EB1D
:1052F00086071F2606FA07F18843D61F06EB8606A7
:1053000005FA06F10843206310E0E06AA2F10D06F9
:1053100006EB86071F2606FA07F18843A2F10D0661
:1053200006EB860605FA06F10843E062F0BD21B1FE
:10533000826842F48012826003E0826822F4801264
:10534000826070470146C86C80B2704766484C3036
:105350000068704721B1426842F48062426003E015
:10536000426822F480624260704721B1426842F490
:105370008052426003E0426822F4805242607047EB
:105380000A460021816821F4E041114381607047A1
:1053900021B1826842F40042826003E0826822F414
:1053A00000428260704721B1826842F4021282603A
:1053B00003E0826822F402128260704701460020F6
:1053C0008A6802F400120AB1012000E00020704750
:1053D000F0B504461546002000220026092911DDFB
:1053E000E068A1F10A0707EB470C072707FA0CF260
:1053F0009043A1F10A0707EB470703FA07F21043AE
:10540000E0600CE0206901EB410C072707FA0CF281
:10541000904301EB410703FA07F210432061A06BB0
:10542000C0F30156EF1C06F1010CA7EB0C0707EBCC
:10543000870C1F2707FA0CF29043EF1C06F1010CB2
:10544000A7EB0C0707EB870701FA07F21043A063ED
:10545000F0BD10B50A4600210023816B21F44011F4
:10546000531E41EA0351816310BD08B50023009328
:105470000090009B0B440093009B1A6008BD08B588
:10548000024600200090009201F12800009B184481
:1054900000900098006880B208BD0A46002141686B
:1054A000164B194011434160704741628262704758
:1054B0000A460021416821F01F01114341607047F5
:1054C00040B109490831096841F40001064A08322F
:1054D000116007E004490831096821F40001024A1B
:1054E000083211607047000000240140002801408C
:1054F000003C0140FFFEF0FFFDF7F1FFFFFD3FFF25
:105500000246002013680B400BB1012000E0002090
:105510007047CA430260704770B5024600200023FE
:1055200000240B125568CEB205EA060415681D402A
:1055300015B10CB1012000E0002070BD00220A125C
:10554000D34303607047000010B50446FE48844210
:1055500009D10121480601F0C0F800214FF0007088
:1055600001F0BBF808E00121880601F0B6F800213F
:105570004FF0806001F0B1F810BD30B50246002058
:105580000023146824F002041460146844F0010439
:10559000146000E05B1C546804F001041CB94FF671
:1055A000FF74A342F6D1546804F001040CB9002042
:1055B0006CE08C79012C04D1146844F080041460F0
:1055C00003E0146824F080041460CC79012C04D129
:1055D000146844F04004146003E0146824F04004AC
:1055E00014600C7A012C04D1146844F02004146077
:1055F00003E0146824F0200414604C7A012C04D1D8
:10560000146844F01004146003E0146824F01004DB
:1056100014608C7A012C04D1146844F008041460DE
:1056200003E0146824F008041460CC7A012C04D13F
:10563000146844F00404146003E0146824F00404C3
:1056400014608C78A407CD7844EA05640D7944EAA7
:1056500005444D7944EA05540D886D1E2C43D461F0
:10566000146824F001041460002300E05B1C5468FB
:1056700004F001041CB14FF6FF74A342F6D1546844
:1056800004F001040CB1002000E0012030BD10B591
:105690000021837A012202FA03F1AC4A126842F037
:1056A0000102AA4B1A60A94A1C3212688A43A74B0E
:1056B0001C331A60027BCAB9A44A0C3212688A43AE
:1056C000A24B0C331A604288C38842EA03439F4AC4
:1056D0004032847A42F834300288838842EA0343B5
:1056E0009A4A4032847A02EBC4025360027B012A58
:1056F00019D1964A0C3212680A43944B0C331A6043
:105700004288038842EA0343904A4032847A42F84E
:105710003430C288838842EA03438C4A4032847A18
:1057200002EBC4025360C27A3AB9884A121D126869
:105730008A43864B1B1D1A6006E0844A121D1268BC
:105740000A43824B1B1D1A60028932B97F4A143208
:1057500012688A437D4B14331A600289012A06D1EC
:105760007A4A143212680A43784B14331A60427B27
:10577000012A06D1754A1C3212680A43734B1C3346
:105780001A60724A126822F00102704B1A6010BD52
:1057900000218171C171017241728172C172817087
:1057A000C170032101710221417101210180704703
:1057B0006649096841F00101644A116011460968AF
:1057C00043F60E729143614A11601146096841EA3D
:1057D000002111601146096821F001011160704734
:1057E00021B1026842F48032026003E0026822F4D0
:1057F000803202607047E1B1026842F080020260CC
:105800004FF4C272125842F480734FF4C2721350B4
:105810004FF4CA72125842F480734FF4CA72135094
:105820004FF4D272125842F480734FF4D272135074
:105830001BE0026822F0800202604FF4C27212582C
:1058400022F480734FF4C27213504FF4CA7212588C
:1058500022F480734FF4CA7213504FF4D27212586C
:1058600022F480734FF4D2721350704710B5024681
:105870000020936803F08063B3F1806F00D110E0E3
:10588000936803F00063B3F1006F01D1012008E0D9
:10589000936803F08053B3F1805F01D1022000E0F0
:1058A0000420042879D002F5C07303EB00131B68B1
:1058B00003F0010402F5C07303EB00131C600B7AC4
:1058C0007BB94B7A0C8843EA445302F5C07404EB6D
:1058D00000142468234302F5C07404EB0014236011
:1058E00010E00B7A4C6843EAC4034C7A234302F578
:1058F000C07404EB00142468234302F5C07404EB65
:10590000001423608B7A03F00F038B7202F5C073CF
:1059100003EB00135B6823F00F0402F5C07303EB85
:1059200000135C6002F5C07303EB00135B688C7AB4
:10593000234302F5C07404EB001463608B7B1C06E8
:105940004B7B44EA034403E00064004000660040EF
:105950000B7B44EA0323CC7A234302F5C07404EBA7
:105960000014A3608B7C1C064B7C44EA03440B7C34
:1059700044EA0323CC7B234302F5C07404EB0014F8
:10598000E36002F5C07303EB00131B6843F00104EE
:1059900002F5C07303EB00131C6010BD10B5024686
:1059A000002321B1012907D002290FD109E0906815
:1059B000F94C00EA04030BE09068F84C00EA040399
:1059C00006E09068F64C00EA040301E0002300BF03
:1059D00000BFF44C181BA34216D007DC83B16FF054
:1059E0008060184470B1022818D111E0B0F5007F32
:1059F00010D0ED4C204448B1B0F5003F0ED10BE083
:105A000002230DE000230BE0002309E0002307E060
:105A1000012305E0012303E0012301E0002300BF8F
:105A200000BFD8B210BD21B1012907D002290FD182
:105A300009E0826842F0800282600AE0826842F4F3
:105A40000042826005E0826842F40002826000E069
:105A500000BF00BF704710B500F5D87303EB01130A
:105A60001B6803F004031372137A53B900F5D8735B
:105A700003EB01131B6840F2FF7404EA53531360F5
:105A800009E000F5D87303EB01131B686FF0604465
:105A900004EAD303536000F5D87303EB01131B68CA
:105AA00003F00203537200F5D87303EB01135B6834
:105AB00003F00F03937200F5D87303EB01135B68D7
:105AC0001B0AD37400F5D87303EB01139B68D372E0
:105AD00000F5D87303EB01139B681C0A147300F5DF
