:020000040800F2
:100000003019002025030008490300084B030008AD
:100010004F030008530300085703000800000000C6
:100020000000000000000000000000005B0300086A
:100030005D030008000000005F0300086103000882
:100040003F0300083F0300083F0300083F03000888
:100050003F0300083F030008B52200083F030008E3
:100060003F0300083F0300083F0300083F03000868
:100070003F0300083F0300083F0300083F03000858
:100080003F0300083F0300083F0300083F03000848
:100090003D2C00083F0300083F030008932200089E
:1000A0003F0300083F0300083F0300083F03000828
:1000B0001126000805240008CB2700083F0300088C
:1000C0003F0300083F0300083F0300083F03000808
:1000D0003F0300088D1500089B1500083F0300082A
:1000E0003F0300083F0300083F0300083F030008E8
:1000F000213A00083F0300083F0300083F030008BF
:100100003F0300083F0300083F0300083F030008C7
:100110003F0300083F0300089F3900083F03000821
:100120003F0300083F0300083F0300083F030008A7
:10013000DFF80CD009F07EFF0048004703060008F6
:10014000301900200CB50020019000906C48006828
:1001500040F480306A49086000BF6948006800F4D4
:10016000003000900198401C0190009818B9019847
:10017000B0F5A06FF1D16248006800F4003010B112
:100180000120009001E0002000900098012843D158
:100190005C48006840F010005A4908600846006852
:1001A00020F0030008600846006840F00200086084
:1001B00053484068524948600846406848600846CD
:1001C000406840F4806048600846406820F47C1035
:1001D00048600846406840F4E810486008460068F7
:1001E00040F08070086000BF4548006800F0007073
:1001F0000028F9D04248406820F003004049486098
:100200000846406840F00200486000BF3C48406833
:1002100000F00C000828F9D10CBD10B5FFF792FFD3
:1002200010BD10B53648006840F001003449086040
:10023000084640683449084031494860084600682B
:10024000324908402E4908600846006820F48020A2
:1002500008600846406820F4FE0048604FF41F0024
:100260008860FFF7DAFF4FF000602949086010BD91
:1002700010B5002100200022214B5B6803F00C0127
:1002800021B1042906D0082928D107E0214B224CAE
:10029000236027E01F4B204C236023E0184B5B6852
:1002A00003F47010164B5B6803F48032022303EBF7
:1002B000904022B9194B4343174C23600DE0104B7B
:1002C0005B6803F4003323B1144B4343124C2360A7
:1002D00003E0104B4343104C236003E00D4B0E4CE6
:1002E000236000BF00BF064B5B68C3F303130C4CD5
:1002F000E15C094B1B68CB40074C236010BD00003C
:1003000000100240002002400000FFF8FFFFF6FE50
:1003100008ED00E000127A000000002000093D0016
:10032000040000200648804706480047FEE7FEE735
:10033000FEE7FEE7FEE7FEE7FEE7FEE7FEE7FEE795
:100340002302000831010008704700BFFEE700BF2C
:10035000FEE700BFFEE700BFFEE77047704770474B
:10036000FE480068401CFD490860FD48006820B157
:10037000FB480068401EFA490860704770B58AB0B3
:10038000F8480078F8498870F8480068012801D1D9
:10039000C87002E00020F449C87000240DE002F0AB
:1003A00075F8F34800882DF8140001F049FD81B27A
:1003B00005A820F81410601CC4B20A2CEFDBED492C
:1003C0000888C11700EB11610912A0EB0121E64A70
:1003D0001172E8490888C11700EB1161090A5172CE
:1003E000002525E000241DE03DF81410601C3DF8B8
:1003F0001000814214DD3DF81460601C3DF81000CF
:100400002DF81400601C2DF8106005A830F8146059
:10041000611C30F8111020F81410611C20F81160D4
:10042000601CC4B2C5F10900A042DDDC681CC5B285
:10043000092DD7DBBDF80400BDF806100844BDF84F
:1004400008100844BDF80A100844BDF80C10084410
:10045000BDF80E100844062190FBF1F080B2ADF813
:100460000200BDF81810BDF81A000144BDF81C00C8
:100470000144BDF81E000144BDF820000144BDF850
:1004800022000844062190FBF1F081B2ADF816106D
:10049000BDF80200C11700EB11610912A0EB0121A8
:1004A000B14A1171BDF80200C11700EB1161090AD0
:1004B0005171BDF81600C11700EB11610912A0EBD4
:1004C00001219171BDF81600C11700EB1161090AF5
:1004D000D1715520A84908702120487010468078B5
:1004E00088701046C078C8701046007908711046B0
:1004F000407948718978A04AD27811449E4A12798D
:1005000011449D4A52798818C11700EB11610912F4
:10051000A0EB0121984A9171BB201146C87155206A
:1005200096490870222048708F48807988708E48DC
:10053000C079C8708C48007A08718B48407A48713D
:1005400089788E4AD27811448C4A127911448B4AA8
:1005500052798818C11700EB11610912A0EB012133
:10056000864A9171BB201146C87108F054F90AB04F
:1005700070BD10B501F03EF98148006820F00F0011
:100580007F4908600846006840F0080008607C4821
:100590000830006840F48070794908310860794873
:1005A0004068C0F3130077494860084640687649C0
:1005B0000843744948600846C06840F46040C86019
:1005C0007248006820F4702070490860084600688E
:1005D00040F4403008606D480830006840F48050B6
:1005E0006A49083108600120694908606949C1F811
:1005F000B80167490839086000206749C1F8B001AF
:1006000010BD002500240026002054490860FFF793
:1006100008FE00F053FF614805F015FF5F48406891
:100620004FF47A72B0FBF2F1B1F1807F00D31FE09A
:1006300021F07F40401E4FF0E022506150170F2202
:10064000002809DA13074FEA136C554B00F00F0727
:100650003F1F03F807C003E013071F0E514B1F5441
:1006600000BF00204FF0E02290610720106100BF22
:10067000482001F061F800F075FF4F21632003F07E
:100680009DF94FF4E13000F08CFF03F0A6FAFFF77C
:1006900070FF5520344908702120487002F00CFD8D
:1006A00001F027F902F02DFF08213FA002F062FEC1
:1006B00002F0CEFE08F08AF956E16D1C3C48B5FB0D
:1006C000F0F100FB1150002843D1012139A002F0C4
:1006D00051FE3948006808B9012000E00020364981
:1006E000086002F0B5FE03F087F8344A51781078BC
:1006F00002F02AFE3248007800282ADD31480178CD
:100700000078401C2F4A1070032922D12C48007811
:1007100002280DDD00202A49087001222A480178AC
:100720002A48007807F087F8012008F0D8F80DE093
:10073000282007F075F9642001F01AF8282007F046
:10074000C5F81F480078401C1D49087000201D494D
:100750000870064810300068D0BB3AE0EC0000207A
:10076000F00000206A0000200C08002020812142B7
:100770000802002072000020C2060020CA060020E5
:10078000040C01400010014000003033041401400B
:10079000BC012242000022420080224218080020B0
:1007A00018ED00E000E400E04131423243330A003A
:1007B0001FA1070040000000A08122423C0300204E
:1007C0009000002091000020930000209200002063
:1007D00021E01E2000F0CCFF00BFF7480068002891
:1007E000FBD00120F54908604FF47A7000F0C0FF9B
:1007F0000020F349C1F8B00103220521012007F0D0
:10080000E9FB00220121042007F073FD00220521ED
:10081000012007F06EFDE848001D006850B90A206D
:1008200000F0A6FF00BFE448001D00680028FAD0D1
:10083000FFF7A4FDE0480830006850B90A2000F036
:1008400097FF00BFDC48083000680028FAD007F0A6
:10085000BDFFD9480C30006840B90A2000F088FF7D
:10086000D5480C30006808B907F0B0FFD5480078CB
:10087000012879D101F03DF8052000F025FED2488D
:100880004078022871D1D048807851286ED027DC7A
:1008900011286CD00BDC6BD2DFE800F06A5373BF19
:1008A000FEF3F2F1F0EF6A6A6A6A6A6AEE003628CD
:1008B0007ED00CDC30287CD004DC12287AD02028B2
:1008C00056D1F4E1312876D03528F9D141E23828E3
:1008D00072D0392871D0402870D05028F0D187E2EA
:1008E00080286CD018DC70286AD00CDC612868D0B5
:1008F00004DC542866D06028E2D1C7E2622878D0B0
:100900006328DDD106E3712875D0722874D073286E
:1009100073D07528D4D162E3A0286FD008DC812879
:100920006DD082286CD083286BD09028C8D189E301
:10093000A12867D0A2286ED0F0286DD0F128BFD1B1
:1009400081E3B4B90020A1490870A1490880A149F8
:100950000870A1490870A1490870A1490870A1490F
:10096000087000F0C6FF0BE0EAE3EAE35FE215E19E
:10097000E8E39DA003F0AEF94FF4FA7000F0F8FE42
:1009800010E2BCBB00209249088001209249087007
:10099000002090490870964908808B48407908806B
:1009A000084600884FF6FF7101EA002090490AE0EE
:1009B000E4E193E15CE19EE1F5E109E217E212E393
:1009C000BEE271E252E208807F480079098808435C
:1009D000874908807C48C0788649086008460168D5
:1009E000006801F03AF800BF7A4800780328FBD18C
:1009F00010E079E207E0BFE2D2E2E5E2A6E3F5E249
:100A0000FBE20BE3A5E37CA003F064F94FF4FA707A
:100A100000F0AEFEB4E7A7E3B3E3A4BB00206C494B
:100A2000088001206D49087000206A4908707049EB
:100A30000880654840790880084600884FF6FF71B5
:100A400001EA00206A4908805F4800790988084463
:100A5000674908805C48C0786649086008460068B5
:100A6000414264480068404200F0F7FF00BF594827
:100A700000780328FBD10EE07CE067E05AE04CE010
:100A80003FE018E008E0FFE75DA003F023F94FF432
:100A9000FA7000F06DFEC3E32CB94B4A1179D0789F
:100AA00007F09FFA06E058A003F014F94FF4FA702B
:100AB00000F05EFEB4E3E4B900204549088001205F
:100AC000484908700020434908703F48C0784949A8
:100AD0000860032002F00FFD464800684142454887
:100AE000006800F0BAFF00BF3A4800780228FBD146
:100AF00006E047A003F0EEF84FF4FA7000F038FE7D
:100B00008EE314B906F0AFFF06E043A003F0E2F86D
:100B10004FF4FA7000F02CFE82E31CB9002040492B
:100B2000088006E03FA003F0D5F84FF4FA7000F01B
:100B30001FFE75E314B908F048FD06E03CA003F081
:100B4000C9F84FF4FA7000F013FE69E354B91E4877
:100B500000793038394908701B48C0786138384905
:100B6000087006E037A003F0B5F84FF4FA7000F013
:100B7000FFFD55E354B91448C07835490870124850
:100B80000079487010484079887006E031A003F081
:100B9000A1F84FF4FA7000F0EBFD41E354B90A48B4
:100BA000C0782B49C8700848007908710648407918
:100BB00048715CE054E0000030812142B081224263
:100BC00000802242E8000020F40800206B00002092
:100BD000760000206A0000206C0000206D000020DC
:100BE0006E0000206F000020CDA3D6B900000000E9
:100BF0007400002078000020C7B0BDF8000000009D
:100C0000BAF3CDCB00000000D7AACDE4000000006D
:100C1000D3D2D7AA00000000D1ADBCA300000000D1
:100C200072000020C2EBC5CCC7E5C1E300000000A4
:100C3000C1A2CCE5D7AACDE400000000A4070020A3
:100C4000A5070020B8C4B1E4CEBBD6C300000000A5
:100C500064000020BAECCDE2C7B0C8FD000000007F
:100C6000F9A003F037F84FF4FA7000F081FDD7E2F5
:100C7000ACB90020F7490870F7490880F7490870B7
:100C8000F7490870F7490870F7490870F749087084
:100C900000F02FFE0621F64801F05DFC06E0F5A00D
:100CA00003F018F84FF4FA7000F062FDB8E2F34870
:100CB000C07818B10020F249086002E00120F04934
:100CC0000860EE48007920B10020ED49091F086056
:100CD00003E00120EA49091F0860A1E2E748C07863
:100CE00020B10020E6490839086003E00120E4490A
:100CF0000839086094E20120E24908604FF49670D8
:100D000000F036FD0020E049C1F8B0014FF49670C4
:100D100000F02EFD0120DB4908604FF4967000F0D2
:100D200027FD0020D849C1F8B0014FF4967000F0BB
:100D30001FFD0120D34908604FF4967000F018FDA4
:100D40000020D149C1F8B0014FF4967000F010FDB9
:100D500066E25CB9C94B5A79DB78613BD9B2C74BC3
:100D60001B79303BD8B207F035F906E0C7A002F096
:100D7000B1FF4FF4FA7000F0FBFC51E25CB9BF4BDD
:100D80005A79DB78613BD9B2BC4B1B79303BD8B286
:100D900007F0AFFA06E0BFA002F09CFF4FF4FA7034
:100DA00000F0E6FC3CE25CB9B44B5A79DB78613B7D
:100DB000D9B2B24B1B79303BD8B206F03CFD06E00D
:100DC000B6A002F087FF4FF4FA7000F0D1FC27E2E2
:100DD0002CB9AA4A1179D07808F0B0FA06E0B1A08F
:100DE00002F078FF4FF4FA7000F0C2FC18E217E24C
:100DF000ACB9002097490870974908809749087056
:100E00009749087097490870974908709749087082
:100E100000F06FFD0421A64801F09DFB06E0A5A0AF
:100E200002F058FF4FF4FA7000F0A2FCF8E1ACB900
:100E300000208849087088490880884908708849D6
:100E4000087088490870884908708849087000F05F
:100E500050FD0421994801F07EFB06E098A002F0C5
:100E600039FF4FF4FA7000F083FCD9E134B99648A9
:100E700001789648007808F06EFB06E094A002F036
:100E800029FF4FF4FA7000F073FCC9E124B97B49E3
:100E9000C87808F0D7FA06E090A002F01BFF4FF4E4
:100EA000FA7000F065FCBBE100206A4908706A49ED
:100EB00008806A4908706A4908706A4908706A4976
:100EC00008706A49087000F014FD01206D4908603F
:100ED000642000F04DFC00206B49C1F8B0010421F2
:100EE000804801F038FB9BE100205A4908705A49BC
:100EF00008805A4908705A4908705A4908705A4976
:100F000008705A49087000F0F4FC0421764801F09A
:100F100022FB85E100204F4908704F4908804F4966
:100F200008704F4908704F4908704F4908704F4981
:100F3000087000F0DEFC04216C4801F00CFB6FE14E
:100F40004E48C078012809D16949087000226948D3
:100F500001786948007806F06EFC0CE04748C078DC
:100F600048B900206249087000226248017862484E
:100F7000007806F060FC53E154B94048C0785F49FE
:100F800008703E48007948703C484079887006E017
:100F90005BA002F09FFE4FF4FA7000F0E9FB3FE126
:100FA00054B93648C07859490870344800794870B7
:100FB00032484079887006E055A002F08BFE4FF46D
:100FC000FA7000F0D5FB2BE12C48C0782B49C87093
:100FD00008460079087108464079487120E10120EF
:100FE0004E4908701CE1FFF7C9F919E14C490C2082
:100FF00007F0F4FC07F025FC12E124B91F49C8787A
:1010000007F06DFC09E047A002F064FE4FF4FA70AF
:1010100000F0AEFB0B2007F062FC01E13CB908F0E8
:101020006DFA43490870022007F059FC09E041A01D
:1010300002F050FE4FF4FA7000F09AFB0B2007F01C
:101040004EFCEDE07FE0C1E0BAECCDE2BAF3C8FDC2
:10105000000000006B000020760000206A000020E5
:101060006C0000206D0000206E0000206F0000204A
:1010700064000020BAECCDE2B7A20000F408002022
:10108000BC012242B081224200802242B5B1C7B0E9
:10109000B5E30000C4BFB1EAB5E30000D1DAC2EBAA
:1010A00000000000B7BDCFF2BFD8D6C600000000D8
:1010B00014000020C9CFB7AD0000000018000020C8
:1010C000CFC2B7AD00000000A5070020A407002094
:1010D000B3B5C5C6BAECCDE200000000B9E2B5B5C3
:1010E00000000000970700209B0700209F070020BA
:1010F0009000002093000020920000209107002023
:10110000B3B5C5C6C7B0C8FD0000000094070020F5
:10111000B3B5C5C6BAF3C8FD000000004007002003
:1011200020150020CAFDBEDDB7B5BBD80000000009
:10113000A3070020B9E2B5B5B7B5BBD800000000E1
:101140007AE076E05AE003F050FC69E002F080F9C2
:1011500066E03A4800793949C97800EB012086B247
:10116000304602F046F95BE034484079334909796A
:1011700000EB012086B23149C878314602F04FF9C0
:101180004EE001202E490860C82000F0F1FA00204E
:101190002C49C1F8B001C82000F0EAFA0120284922
:1011A0000860C82000F0E4FA00202649C1F8B00128
:1011B000C82000F0DDFA012021490860C82000F0B5
:1011C000D7FA00201F49C1F8B00129E001201C49CD
:1011D0000860C82000F0CCFA00201A49C1F8B0011C
:1011E000C82000F0C5FA012015490860C82000F0A9
:1011F000BFFA00201349C1F8B00111E000201249E4
:101200000870124908801249087012490870124982
:101210000870124908701249087000F06AFB00BF9C
:1012200000BF0648807800F0F000802801D007F069
:10123000CDFA00200B490870FFF73FBAF4080020F0
:10124000B0812242008022426B0000207600002004
:101250006A0000206C0000206D0000206E0000205D
:101260006F000020E80000208849097811B30021B0
:10127000874A11708749097801290FD10021854AD1
:1012800011708549098841F00101834A11800021CC
:10129000824A11708249127888540BE07F4909789C
:1012A000C82907DA7D490978491CC9B27B4A1170FF
:1012B0007B4A5054704770B5044674480078002843
:1012C0007CD078480078002809DD7748754909788E
:1012D000445474480078401C724908700AE0552C48
:1012E00005D17148047001206E49087002E00020A9
:1012F0006C4908706B4800786C49097888425DDB5E
:101300006A480078401E6849085CBB2879D1684863
:101310000078002875D108464078FD2871D000205B
:1013200060490870624908705F4989785E4AD278DE
:1013300011445D4A127911445B4A52798818C117E9
:1013400000EB11610912A0EB0121CDB25648807962
:10135000A84252D15748407853494978884217D11A
:101360005448807850498978884211D15148C078D2
:101370004D49C97888420BD14E4800794A490979CC
:10138000884205D14B48407947494979884216D06F
:1013900001204949087000203C49087042484078C3
:1013A000444948704048807888703F48C078C87089
:1013B0003D48007908713C484079487164E03A48FA
:1013C0008078802802D107F026FA5DE036488078E0
:1013D000812802D107F035FA56E033488078822818
:1013E00003D031488078832804D1002007F077FAB1
:1013F0004AE006E007F0EAF946E000202E490870CE
:1014000042E029484078FD2822D129480078F8B9DF
:1014100025488078082807DD23488078234908700C
:101420000120234908702FE000201E4908701F4842
:101430000078401E1C49085CBB2825D100201C49AF
:101440000870082019490870174801F031FA1BE0AC
:1014500017480078012812D114480078401E12491C
:10146000085CBB280BD100200E4908701049087099
:1014700008200E4908700C4801F01AFA04E0002018
:101480000D4908700749087070BD0000C1060020B2
:101490005A0200205B02002000080040E500002006
:1014A0002C080020E7000020F4080020E4000020C1
:1014B000E9000020AE020020E800002010B547211E
:1014C000002002F01DFA10BD70B504460025254627
:1014D000A9B2214805F04EFF00201F4924310880A1
:1014E00000211D4805F044FF01211B4805F072FF53
:1014F0000121194805F0A8FC00BF0121164805F09C
:1015000060FF0028F9D00021134805F031FF0021C9
:10151000114805F099FC70BD00BF0100A0F1010069
:10152000FBD170470D49086070470C480068704750
:101530000A48006808B9012070470020FCE7084805
:101540000068704706490968884203D90449096858
:10155000401A00E000207047000C0040F00000201E
:10156000EC00002008B54FF4E06003F09FFC14206D
:101570008DF8000000208DF801008DF802008DF834
:101580000300684603F097FC08BD00000021654A8F
:10159000117065490988C8B2704764490988C8B2A2
:1015A000704710B586B00446012144F2040004F0EF
:1015B000B7FF5D48001F05F025FF4FF40070ADF840
:1015C000140003208DF8160018208DF8170005A9C7
:1015D000574804F0E9FC4FF48060ADF81400042093
:1015E0008DF8170005A9524804F0DEFC0194002094
:1015F000ADF80800ADF80A00ADF80C00ADF8100029
:101600000C20ADF80E0001A94748001F05F03DFF72
:1016100001214548001F05F0C4FF40214248001F3A
:1016200006F09AF806B010BD10B586B00446012148
:10163000480404F082FF0121212004F071FF012100
:10164000082004F082FD2020ADF8140003208DF85E
:10165000160018208DF8170005A9364804F0A4FCE0
:101660004020ADF8140004208DF8170005A931487A
:1016700004F09AFC2D48001F05F0C4FE01940020E0
:10168000ADF80800ADF80A00ADF80C00ADF8100098
:101690000C20ADF80E0001A92448001F05F0F5FE4E
:1016A00001212248001F05F07CFF06B010BD01B5E6
:1016B00002E00098401E009000980028F9D108BD73
:1016C00000BF1949091F098801F080010029F8D0DD
:1016D000C0F30801144A1180704700BF1349091F65
:1016E000098801F080010029F8D0C0F308010F4AF1
:1016F0001180704700BF0D48001F008800F02000D7
:101700000028F8D009480088C0F30800704700B5E9
:10171000034603E013F8010BFFF7D2FF1878002807
:10172000F8D100BD5A0200200438014004440040B2
:1017300000080140001401404FF0E021096921F048
:1017400004014FF0E0221161C21700EB5272C2F3A4
:10175000C702154B1A701946097801EB4102C2EB1A
:10176000C1114FF6FF7202EAC101104A11807047A1
:1017700001460E4A12884A434FF0E0235A61002284
:101780009A6101221A6100BF4FF0E022106900F057
:1017900001021AB100F48032002AF5D000224FF085
:1017A000E0231A619A6170474C0100204E0100202D
:1017B0000E48806940F020000C4988610C480068A0
:1017C0006FF30F000A4908600846006843F233319E
:1017D0000843074908600648083000684FF2FF01D7
:1017E00008400349083108607047000000100240BB
:1017F0000414014010B52748806940F004002549D1
:1018000088610846806940F0080088610846806960
:1018100040F0100088610846806940F0200088612F
:101820000846806940F0400088610846806940F0C1
:10183000010088611848406820F0E060164948605F
:10184000FFF7B6FF00F02AF800F06DF800F014FA88
:1018500000F0EDFA00F05CFB00F07AFB47210A2073
:1018600000F0E4FD47214FF47A7000F07DFF47213E
:101870004FF47A7000F0CCFF47214FF4FA6002F089
:101880005DF800F036FD00F049FE02F0A6F901F027
:10189000ADFF10BD0010024000000140E348806928
:1018A00040F04000E1498861E1480068E1490840B2
:1018B000DF49086008460068DF490843DC490860E2
:1018C000DB4808300068DA49083108600120DB494C
:1018D0000860DB49C1F8A801D84914310860091D26
:1018E00008600020D549091D0860D549C1F8AC0140
:1018F000704710B500214FF0804005F0A5FA642034
:10190000D0490880091D0880091D0880091D08802C
:101910000120CA490860CA49C1F8A8010021084647
:1019200001F037FD10BDC148806940F40060BF4937
:1019300088610846806940F04000886108468069F7
:1019400040F001008861BA480068BF490840B849C2
:10195000086008460068BD490843B5490860BC48AE
:10196000406820F0C000BA4948600846406840F02E
:10197000800048600846406840F0400048606420AD
:10198000B049083908800920091F0880AD481C3873
:10199000008840F06000AB491C3908800846008888
:1019A00040F0080008800846008840F4C0400880E5
:1019B0000846008840F400600880081D008840F058
:1019C0006000091D08800846008840F00800088073
:1019D0000846008840F4C04008800846008840F46B
:1019E0000060088097483438008840F080009549AE
:1019F000343908800846008840F01000088091487B
:101A00001438008840F001008E49143908800846D7
:101A1000008840F0100008800846008840F480707C
:101A200008800846008840F48050088085482038A7
:101A3000008840F00100834920390880814834380B
:101A4000008840F001007F493439088032207D4908
:101A500008800020091D0880704770B505460C46B7
:101A60000121880705F0F0F92146284601F091FC94
:101A7000002D0FDB642D00DD6425052D00DA052522
:101A800001206E4908606F49091D0D800020091F63
:101A9000088012E015F1640F01DA6FF0630515F1AB
:101AA000050F01DD6FF004050120644908606842FC
:101AB000644908800020091D0880002C10DB642C7C
:101AC00000DD6424052C00DA052401205B4908317F
:101AD00008605C4908310C800020091D088014E072
:101AE00014F1640F01DA6FF0630414F1050F01DDE6
:101AF0006FF00404012051490831086060425149E7
:101B00000C3108800020091F08804E4810300088E2
:101B100040F400404B491031088070BD70B5044658
:101B20000D4600204B49088001204B4908700020D9
:101B30004A4908704A4908800846058049480460B7
:101B400001680068FFF789FF70BD70B504460D4657
:101B500000204049088001204349087000203F4987
:101B600008703F490880084605803E4804600068C8
:101B700041423C4800684042FFF76FFF70BD10B51E
:101B800004460020334908800120384908700020AD
:101B90003249087033480460032001F0ACFC31483E
:101BA000016800684042FFF758FF10BD10B50446B9
:101BB00000202849088001202D490870002027496D
:101BC000087028480460032001F095FC254800684F
:101BD000414224480068FFF740FF10BD10B504469D
:101BE000204804600120234908700020194908801A
:101BF000032001F080FC6420FFF7BAFD0121880773
:101C000005F022F910BD10B500201A4908701149DD
:101C10000880124908701049087013490870134968
:101C2000087013490870FFF764FE10BD00100240F1
:101C30000418014000000FF033333003A0012342A9
:101C400000002342342C01400F0F0FF0B0B0B00B56
:101C500000000140760000206C0000206A00002097
:101C600074000020780000206D0000206E0000202D
:101C70006F0000206B0000209948806940F0080048
:101C8000974988619748006820F07F40954908602F
:101C90000846006840F0EE400860704710B501202B
:101CA000914908609149C1F898010420FFF70CFCA4
:101CB00000208D4908600420FFF706FC00208B49B6
:101CC000C1F8980110BD10B50020874908600120B7
:101CD0008649C1F898010420FFF7F6FB01208249EC
:101CE00008600420FFF7F0FB10BD10B504461CB1DE
:101CF00001207D49086002E000207B490860012046
:101D00007949091F08600220FFF7DEFB00207749B0
:101D1000C1F898010220FFF7D7FB10BD10B50120D4
:101D20007149091F08600220FFF7CEFB6F48D0F809
:101D30001C01C4B200206C49091F08600220FFF793
:101D4000C3FB204610BD70B5044600251BE004F01F
:101D500080061EB101206449086002E0002062494B
:101D600008606006040E01205F49091F0860022018
:101D7000FFF7AAFB00205D49C1F898010220FFF798
:101D8000A3FB681CC5B2082DE1DBFFF7C7FF70BDE0
:101D900070B50024012054490860002517E0600652
:101DA000040E01205049091F08600220FFF78CFB38
:101DB0004E48D0F81C0108B1601CC4B200204A494A
:101DC000091F08600220FFF77FFB681CC5B2082DC1
:101DD000E5DB204670BD10B50446FFF75FFF4620E7
:101DE000FFF7B1FF2046FFF7AEFFFFF76CFF10BD16
:101DF00010B5FFF753FF4720FFF7A5FF00240EE0C3
:101E0000FFF7C6FF3A490855032C03D10120FFF71D
:101E10006CFF02E00020FFF768FF601CC4B2032CD7
:101E2000EEDBFFF750FF9620FFF7A2FC10BD10B5C8
:101E30000120FFF7D0FF00202B490839086010BDB2
:101E40002DE9F0470120FFF7C6FF1020FFF7C3FF81
:101E5000C820FFF78DFCFFF7CBFF254804784078BA
:101E600000EB0424204607F0BAFF824607F0F2FF99
:101E700007464FF033321F4B07F042FF054607F08D
:101E8000FCFF1D4908600846006807F0B6FF814660
:101E90004846BDE8F08730B585B00025142217A16B
:101EA000684607F021FDFFF7CBFF85B2002410E064
:101EB0000A2095FBF0F100FB11503030C0B2C4F1A4
:101EC0000E010DF801000A2095FBF0F085B2601CB0
:101ED000C4B2052CECDB6846FFF719FC05B030BD39
:101EE00000100240000C01409C81214200802142F0
:101EF000500100203333F33F540100206C696768C0
:101F000074206973203A20202020206C780A000079
:101F10000C48806940F008000A4988610A48006856
:101F200080B2094908600846006808490843064924
:101F3000086005480830006840F4704002490831E4
:101F40000860704700100240040C014000008888BF
:101F500070470020AF49086070470120AD49086014
:101F6000704710B5AC48007810B1AC48007840B963
:101F7000FFF7BFFC0020AA4908700120A94908709A
:101F800018E10020A7490870A44800786F280CD1F8
:101F9000A54800683230A5490860A3480068323877
:101FA000A34908600020A34908709C48007877285E
:101FB0000CD19D48006832389C4908609A480068F6
:101FC00032309B49086000209A4908709248007896
:101FD000E7280FD090480078F7280BD08E4800787B
:101FE000EF2807D08C480078DF2803D08A48007893
:101FF000FB2809D18C4800681E388D4908608A4842
:1020000000681E38894908608A480078022843D051
:1020100081480078F3280CD18348006864308449F3
:102020000860814800686438804908600020814960
:10203000087079480078F9280CD17B480068643032
:102040007B49086078480068643878490860002057
:102050007849087070480078FC280CD172480068F4
:102060006430734908607048006864386F490860DC
:1020700000207049087068480078FE280CD16A4832
:10208000006864306A4908606748006864386749D6
:1020900008600120674908706648007801284BD025
:1020A0005D480078CF280CD15F48006864305F49F4
:1020B00008605D48006864385D49086000205D493B
:1020C0000870554800789F2803D053480078DF28CF
:1020D0000CD1554800686430544908605248006883
:1020E0006438534908600020524908704A48007813
:1020F0003F2803D048480078BF280CD14A480068E0
:1021000064304A49086048480068643848490860B3
:10211000002048490870404800787F280CD1424888
:1021200000686430414908603F48006864384049AD
:10213000086002203F49087037480078802815DA87
:102140003548007800F0010080B93348007800F08D
:10215000180000280ADD002035490860334908606E
:10216000FFF7C7FB0121344804F06EFE2A480078CF
:10217000FF280FD1294800787F280BD100202C4957
:1021800008602A490860FFF7B4FB01212A4804F0DF
:102190005BFE02E00020294908602148007808B968
:1021A000012000E0002028B920480168204800688C
:1021B000FFF753FC1A48007808B901F0A2F910BDE6
:1021C000FFF76CFBFFF7AFFBFFF7F2FAFFF7C0FE7C
:1021D00000201B490870FFF7BCFE6420FFF7C8FA17
:1021E00001200F49087013E01548007870B11548B8
:1021F00000780949087000201149087012480068E9
:1022000008B9012000E000200F490860FFF7A9FE8F
:10221000EAE7000080012142A8010020A901002076
:102220006B0000206A00002078000020840000205D
:102230008000002088000020003401407C00002045
:1022400045010020840A0020A08122422DE9F047A8
:10225000A148006807F0CCFDA04908600846006866
:1022600007F0F8FD06469E4A9E4B07F0D7FC044651
:1022700000229D4B07F0CCFC804607F0FEFD9749FD
:1022800008600846006807F0D1FD98490880BDE85D
:10229000F08710B59648006838B99648008820F055
:1022A000010094490880FFF7D1FF4FF40070924974
:1022B000086010BD0120904908608D4824380068EE
:1022C000B0B98E48007802280DDD00208B490870D7
:1022D0008B480088401C8A4908808A480088401C36
:1022E0008849088004E085480078401C83490870CC
:1022F00070470EB58448806940F0080082498861C3
:102300000846806940F0400088618048006820F0FD
:102310000F007E4908600846006840F00800086029
:102320007A480C30006840F0010078490C310860B0
:102330007648001D006820F47F607449091D08601C
:102340000846006840F40860086070480C30006877
:1023500040F4C0606D490C3108606D48006820F0A1
:102360000F006B4908600846006840F003000860F1
:1023700067480C30006840F0010065490C31086086
:102380000921012003F026FF4FF400700190002086
:102390008DF808000C208DF8090001208DF80A0046
:1023A00001A803F021FD4FF4A06002F07FFD17208B
:1023B0008DF8000002208DF8010003208DF8020046
:1023C00001208DF80300684602F075FD0021012010
:1023D00003F000FF0120019001A803F005FD4FF478
:1023E000A06002F063FD06208DF8000002208DF849
:1023F000010001208DF802008DF80300684602F00C
:102400005AFD0EBD3B481030008800F0010020B19D
:1024100031480068401C3049086036481030008858
:1024200020F0010033491031088070477FB5054620
:102430000C460121022004F080F8ADF80850ADF8F8
:1024400004400020ADF80A00ADF8060001A92948B3
:1024500004F09EF901221146264804F010FD4FF4C5
:10246000A06002F023FD1D208DF8000000208DF8F3
:1024700001008DF8020001208DF80300684602F08B
:102480001AFD00211B4804F0DFFC7FBD10B50120C0
:10249000204908600320FFF717F800201E49C1F803
:1024A00080011448008840F001001249088011485A
:1024B0001030008820F001000E4910310880002003
:1024C000054908601E20FFF753F9012011490860F3
:1024D0000520FFF74DF910BDFC010020040200208B
:1024E00085EB51B81E85FB3F0000F03F080200203D
:1024F0002481214200040040140401400102002014
:10250000720000207600002000100240000C014004
:1025100000180140800123420000234238488069AE
:1025200040F04000364988613648006820F0F000ED
:10253000344908600846006840F0300008603148BF
:102540000C30006840F002002E490C310860012078
:102550002D49086070472DE9F04107468846002064
:10256000294908600920FFF703F901202749C1F82C
:1025700084010420FFF7FCF84FF40C70FEF7A4FF71
:1025800000242EE0002528E0385D284100F00106F7
:1025900076B900201C4908604FF4FA70FEF794FFEA
:1025A00001201A49C1F884014FF4FA70FEF78CFF3C
:1025B000012E10D10020144908604FF4FA70FEF784
:1025C00083FF01201149C1F88401FFF7D1F84FF4CE
:1025D0004870FEF779FF681CC5B2082DD4DB601C7B
:1025E000C4B24445CEDB0020074908604FF40C70AC
:1025F000FEF76AFF01200549C1F88401BDE8F081BA
:1026000000100240001801408401234200002342D0
:1026100010B54FF08040008A00F0010000280ED075
:10262000082000F0D0FE93490870072000F0CBFE90
:10263000914908709148007810B1FFF792FC8AE048
:102640008F48007870B18F4800888F490988884288
:1026500008DD00208A49087003208C490870FFF7C4
:1026600048F978E08A48007870B186480088864941
:102670000988884208DD00208549087003208349C5
:102680000870FFF736F966E08248007880B37D482D
:10269000008840F2262188420CDD00207D49087028
:1026A0007D490870022079490870FFF722F900F08F
:1026B00028FF50E06F48007800F0080080B97648A5
:1026C0000078002847D000207249087072490870CD
:1026D00002206E49087000F014FFFFF70AF93AE093
:1026E00064480078FF2836D101206B49087032E039
:1026F000FFE76A48007830B36248008840F226213C
:1027000088420CDD0020654908706349087002208A
:102710005E490870FFF7EDF800F0F3FE1BE0554846
:10272000007800F0100078B95B48007858B10020BC
:102730005A49087058490870022054490870FFF738
:10274000D8F800F0DEFE06E04A480078FF2802D103
:102750000120514908704FF08040008A20F00100AC
:102760004FF08041088210BD7FB505460C4601211F
:10277000084603F0E2FEADF80850ADF80440002032
:10278000ADF80A00ADF8060001A94FF0804003F053
:10279000FFFF01221146900704F071FB4FF4E06047
:1027A00002F084FB1C208DF8000000208DF8010051
:1027B00001208DF802008DF80300684602F07BFBD3
:1027C0000121880704F040FB7FBD3548008800F0F8
:1027D0000100B0B133480078401C32490870084607
:1027E000007805280DDD01202F4908702C4810388D
:1027F000008820F001002A491039088001202B4967
:1028000008702748008820F001002549088070479B
:102810007FB505460C460121042003F08EFEADF87D
:102820000850ADF804400020ADF80A00ADF80600ED
:1028300001A91B48103803F0ABFF012211461848CC
:10284000103804F01CFB4FF4A06002F02FFB1E2098
:102850008DF8000001208DF801008DF802008DF840
:102860000300684602F027FB01210D48103804F0F0
:10287000EBFA7FBDA8010020A90100206B00002019
:102880006C00002076000020740000206A00002008
:102890006D0000206E0000205C0200206F00002010
:1028A000100800405A0200205B020020E6000020D1
:1028B00070B50024002200210023C27800BF05E08B
:1028C000CD1C455D1D44ABB24D1CE9B29142F7DB16
:1028D000DD43ECB2D51C455DA54202D101257D4EFC
:1028E000357070BD10B500247B48C079BB2857D126
:1028F00079498978784AD2781144774A1279114413
:10290000754A52798818C11700EB11610912A0EBC2
:102910000121CCB270488079A0423ED16F48407806
:102920006D494978884217D16C4880786A4989781E
:10293000884211D16948C0786749C97888420BD16B
:102940006648007964490979884205D1634840792D
:1029500061494979884216D00120614908700020F8
:10296000604908705C4840785C4948705A488078F3
:1029700088705948C078C87057480079087156481F
:10298000407948710CE054488078802802D105F0E5
:1029900042FF05E005F01AFF02E0002050490870F0
:1029A00010BD70B5002650480078082803DA0020D2
:1029B0004B4908707AE0002473E04748005D5528D1
:1029C0006DD14549E01D085CBB2868D10A46A11CB1
:1029D000525C414BE11C595C0A44211D595C0A447C
:1029E000611D595C5018C11700EB11610912A0EB71
:1029F0000121CEB21946A01D085CB0424CD1002581
:102A000005E028193449085C4855681CC5B2082DF2
:102A1000F7DB31488079B04241D1304840782E49C7
:102A20004978884217D12D4880782B498978884287
:102A300011D12A48C0782849C97888420BD1274843
:102A4000007925490979884205D1244840792249ED
:102A50004979884216D00120214908700020214977
:102A600008701D4840781D4948701B488078887060
:102A70001948C078C87018480079C870164840795D
:102A800008710CE014488078802802D105F0C3FE5C
:102A900005E005F09BFE02E0002011490870601C73
:102AA000C4B211480078C01FA04286DA70BD70B56C
:102AB00004460D462946204600F032FD0020084914
:102AC000087070BD70B504460D462946204600F0DA
:102AD00030FD70BD890000202C080020AE020020CF
:102AE00071000020C1060020E500002010B504465A
:102AF0002CB94FF40041F84803F005FB04E04FF413
:102B00000041F54803F0FDFA10BD00B589B0012180
:102B1000084603F005FD0121042003F001FD012119
:102B2000202003F0FDFC0121EC4803F00EFB012006
:102B3000ADF8200048208DF8230008A9E84803F0EC
:102B400033FA0220ADF8200018208DF8230003206E
:102B50008DF8220008A9E24803F026FA4FF400405D
:102B6000ADF8200010208DF8230008A9DA4803F002
:102B70001BFA0020FFF7BAFF01214FF4EB1003F01E
:102B8000E4FA0121480603F0D8FCD64802F024FC00
:102B900005A802F045FD00208DF81A0001208DF8EF
:102BA0001B0000208DF81C0001208DF81D008DF801
:102BB0001E008DF81F0000208DF816008DF81700FC
:102BC00002208DF8180004208DF819000520ADF8BA
:102BD000140005A9C34802F018FC00208DF80E006F
:102BE0008DF80F0001208DF810000020ADF80400D2
:102BF000ADF80600ADF80800ADF80A00ADF80C001D
:102C000001208DF8110001A802F089FC1220B649BC
:102C10000860486000204872087201208872002015
:102C2000B249087000220221AE4802F079FF09B0D3
:102C300000BD10B50020FFF759FF10BD10B50120F1
:102C4000AA49087000F08AFA10BDA648083000684A
:102C500000F0E05008B1012070470020FCE72DE9AA
:102C6000F04706460C4617469846DDF820904FF090
:102C7000000A9D480760C0F8048000209A49087245
:102C8000487208468472224631460B3006F02CFE0C
:102C90009549944802F034FD0546042D09D04FF0C3
:102CA000010A29468F4802F0C3FD012801D14FF0E7
:102CB000020ABAF1010F04DBB9F1000F01D089F863
:102CC00000505046BDE8F08710B5044621468548BF
:102CD00002F0AEFD10BD2DE9F04104460D4616464A
:102CE0000027032C10DA0AE021467E4802F0A0FDFE
:102CF000012801D1012706E02846FEF70DFC30002F
:102D0000A6F10106F0D100BF3846BDE8F08100B55C
:102D100000BFFFF79AFF0028FBD000BD10B50021CF
:102D2000704802F065FE10BD70B50546002495B1EF
:102D300000216C4802F05CFE044664B16C4A00213C
:102D4000684802F0D2FD6A48847A224600F10B01FD
:102D5000284606F0C9FD204670BD70B50446002522
:102D600054B100215F4802F043FE054625B12246DA
:102D700000215C4802F0B9FD284670BD10B504463C
:102D8000C4F309040AB1102000E0002002460BB190
:102D9000082000E00020034613B1C1F3C13000E079
:102DA0000020014642EA44101843084380B210BD97
:102DB00010B50446C4F309040AB1022000E0002063
:102DC00002460BB1042000E00020034613B1880343
:102DD000C00A00E00020014642EA4430184308439C
:102DE00010BD2DE9FF4705460E464FF0000A06B11B
:102DF0000DB94FF0010A3F48007800F00F0003289A
:102E000001DD4FF0010A3B480078C0F30019BAF128
:102E1000000F19D000208DF80A008DF80B0001205A
:102E20008DF80C000020ADF80000ADF80200ADF800
:102E30000400ADF80600ADF8080001208DF80D0083
:102E4000684602F06CFB0FE10020ADF8080001209D
:102E50008DF80D004FF00008002403E125480078AC
:102E600000F00F0030B101284CD0022876D00328A2
:102E700075D1ADE000208DF80B008DF80C0035F811
:102E800024004B4600221146FFF778FFADF8020000
:102E900005EB840148884B4600221146FFF76EFF80
:102EA000ADF80600601CC0B20446B04224DA35F822
:102EB00024004B4600221146FFF760FFADF80000EA
:102EC00005EB840148884B4600221146FFF756FF68
:102ED000ADF8040015E000000008014000023000D9
:102EE0000014014000640040AC0A0020B70200203A
:102EF000C00A0020B60200200020ADF80600ADF8A0
:102F000004009CE001208DF80B0000208DF80C00DF
:102F100035F824004B4600221146FFF72FFFADF88D
:102F20000200601CC0B20446B04207DA35F8240043
:102F30004B4600221146FFF721FF00E00020ADF8CC
:102F40000600601CC0B20446B04209DA35F824001D
:102F50004B4600221146FFF711FF02E014E061E04A
:102F60000020ADF80000601CC0B20446B04207DA91
:102F700035F824004B4600221146FFF7FFFE00E023
:102F80000020ADF804005AE000208DF80B0001206D
:102F90008DF80C0035F824004B4600221146FFF74F
:102FA00007FF0746B8B2ADF80200380CADF80000D4
:102FB00005EB840148884B4600221146FFF7F8FED6
:102FC0000746B8B2ADF80600380CADF8040036E09C
:102FD00001208DF80B008DF80C0035F824004B46CD
:102FE00000221146FFF7E4FE0746B8B2ADF8020032
:102FF000380CADF80000601CC0B20446B04208DADC
:1030000005EB840148884B4600221146FFF7D0FEAD
:1030100000E000200746B8B2ADF80600380CADF865
:1030200004000CE00020ADF80200ADF80000ADF89F
:103030000600ADF8040034464FF0010A00BF00BF9F
:103040008DF80A80684602F06AFAB44202DA601C1F
:10305000C4B200E007E008F10100C0B280460D28CC
:1030600000DB00E0FAE600BFBDE8FF8770B504466C
:103070000E4615462660E5600021204600F066FAFF
:1030800070BD10B5F74A3221F748FFF7EFFFF74A56
:103090003221F748FFF7EAFFF64A3221F648FFF7F8
:1030A000E5FFF64A3221F648FFF7E0FFF54A322104
:1030B000F548FFF7DBFF10BD10B50020F3490860AD
:1030C000FFF723FD0020F24908700721F148FFF7C0
:1030D00088FEFFF7AEFDFFF7D4FF10BD704738B58F
:1030E000002411E0EC480178DF4800F061FA00B9F3
:1030F0000CE0E9480078401CC0B2E7490870392864
:1031000001DD30200870641C0A2CEBD300BF0024C2
:1031100006E06946D44800F079FA00B902E0641C80
:10312000072CF6D300BF38BD10B586B0DB48006869
:10313000FEF708FA40B9FEF702FA6430D749086092
:10314000FFF7CCFFFFF7CBFFFFF7E8FD04461CB10C
:1031500001A8FFF702FE00BF06B010BD10B5D048B1
:10316000FFF7FBFDCE48C07C20B101280AD0022821
:1031700018D10FE0CA48827A00F10B01BA4800F07A
:103180005DFA24E0C648827A00F10B01B84800F0ED
:1031900055FA1CE0C248827A00F10B01B84800F0F1
:1031A0004DFA14E0BE48C07C03280FDBBC48C07C4D
:1031B00006280BDCBA48C07CC01EBA4901EBC0002F
:1031C000B7490B310A6802604968416000BF00BF1F
:1031D000B348C07C062809DCB148C07CB24951F82C
:1031E0002000AA4909680843A849086010BD10B525
:1031F00001E0FFF7B3FFFFF791FD0028F9D110BD03
:10320000AA4A10705170704738B5FFF7F0FF4FE0D1
:10321000FFF7EDFF002449E0A34850F824009B4944
:103220000968084000283FD0072C34D2DFE804F0BA
:10323000040E1A26332C2D0000E005E069468A486A
:1032400000F0E4F90028F8D100BF00BF03E09DF8CA
:103250000000FEF709F86946854800F0D7F9002814
:10326000F5D118E003E09DF80000FEF724F8694668
:10327000834800F0CBF90028F5D10CE0894A517859
:103280001078FFF7BDFF06E005E08648007E0128C4
:1032900000D100E000BF00BF854850F824007B4902
:1032A0000968084079490860601CC4B2062CB3DD87
:1032B000764800680028ABD138BD70B504460D468D
:1032C00005E02078FFF700FD012800D103E0280089
:1032D000A5F10105F5D100BF70BD7CB5012530E039
:1032E000002508227349604800F0BCF9C4B214B14B
:1032F000FFF70DFD012508226E495F4800F0B2F985
:10330000C4B25CB1FFF703FD01A800234FF42072A3
:10331000214600906748FFF7A2FC01250822654975
:10332000594800F09FF9C4B25CB1FFF7F0FC01A866
:1033300000234FF42872214600905E48FFF78FFC6F
:103340000125002DCCD17CBD7CB505460C46012065
:103350008DF804008DF805508DF80640FFF7D7FC76
:10336000002003464FF4F0720321009001A8FFF7FC
:1033700076FC7CBD38B504460D46FFF7C8FC00203E
:1033800003464FF47072294600902046FFF767FC11
:1033900038BD7CB505460C46E8B28DF80400E8B2AD
:1033A0008DF80500E0B28DF80600E0B28DF8070058
:1033B000FFF7ADFC0020034620220421009001A865
:1033C000FFF74DFC7CBD014639B938484078374A93
:1033D000127800EB022080B27047072902D13348EF
:1033E0004078F9E7082902D130480078F4E7002056
:1033F000F2E71CB5044603208DF80400200A8DF87E
:103400000500E0B28DF80600FFF781FC00200346BE
:10341000EF220321009001A8FFF721FC1CBD7CB521
:1034200005460C4604208DF804008DF80550200A4E
:103430008DF80600E0B28DF80700FFF768FC002069
:103440000346EF220421009001A8FFF708FC7CBD91
:1034500010B54FF44D70FFF7CCFF6420FEF788F9EC
:10346000002433E0240B0020D40A0020560B002057
:10347000E40A0020880B0020F40A0020BA0B002088
:10348000040B0020EC0B0020140B0020080300208C
:10349000B602002016030020380300203403002069
:1034A000200C0020340C0020F4A00008140300209D
:1034B00074A100080C03002041F658312046FFF7A4
:1034C000AEFF1E20FEF754F9601CC4B20F2CF3DBD4
:1034D00010BD1CB5044602208DF804008DF805408F
:1034E000FFF715FC00200346EF220221009001A8FF
:1034F000FFF7B5FB1CBD10B504462046FFF7E9FFFA
:1035000010BD10B5002408E00020FFF7E2FF40F6F0
:10351000B830FDF7D9FF601CC4B2032CF4DB10BD3A
:1035200070B504460D462A462146064800F086F846
:1035300070BD70B504460D462A462146024800F08B
:103540007DF870BD140B0020F40A002070B504460D
:103550000D4664B12068012809D90020A0602068C8
:10356000401E60602A462168E06806F0CFF970BD11
:103570000146002069B10A68012A0AD9CA6842B125
:103580000B688A689A4204D2D1E900329A4200D28A
:103590000120704730B5044600252046FFF7E8FFBC
:1035A00020B1D4E90110884200D00125284630BD61
:1035B00070B504460D4600262046FFF7EBFF58B1D4
:1035C000A168481CA060E06845542168A068884252
:1035D00001D30020A0600126304670BD30B50446FE
:1035E00000252046FFF7C4FF70B1D4E90001401E5A
:1035F000814203D1A06838B1012505E0D4E9010179
:10360000401C814200D00125284630BD70B50446DB
:103610000D46002685B12046FFF7E0FF60B16068E7
:10362000401C60602168884201D3002060606168AE
:10363000E068405C28700126304670BDF0B5074652
:103640000D461646002406E0295D3846FFF7B0FF18
:1036500000B904E0641C3000A6F10106F4D100BFFB
:103660002046F0BDF0B507460C461646002564B16D
:1036700006E061193846FFF7C9FF00B904E06D1C88
:103680003000A6F10106F4D100BF2846F0BD0000CD
:1036900000B587B001214FF4047002F041FF4FF4F0
:1036A000004002F0A1FE3020ADF8040000208DF8AB
:1036B000070001A92E4802F077FC2E4801F064FCB7
:1036C000002002908DF80C008DF80D004FF4602062
:1036D00004900020059001208DF8180002A92548CB
:1036E00001F079FC0121234801F0A1FC214801F0FF
:1036F000C0FC00BF1F4801F0C1FC0028FAD11D48E2
:1037000001F0C6FC00BF1B4801F0C7FC0028FAD13D
:1037100007B000BD10B50446072301222146154815
:1037200001F0F1FC0121134801F0C1FC00BF0221AE
:10373000104801F02DFE0028F9D00E4801F04AFD96
:1037400010BD2DE9F04107460C460025002608E093
:103750003846FFF7DFFF05440520FEF709F8701C27
:10376000C6B2A642F4DBB5FBF4F080B2BDE8F0814E
:1037700000100140002401402DE9F04107460C46AD
:103780000025002608E03846FFF7C4FF0544052061
:10379000FDF7EEFF701CC6B2A642F4DBB5FBF4F0F9
:1037A00080B2BDE8F0812DE9F0414C484C490860F9
:1037B0004C494B48006806F01AF9494908604A48E4
:1037C0004A49086047494948006806F010F98046B0
:1037D00006F040FB06460022454B06F091FA0446EF
:1037E00006F04BFB41490860BDE8F08110B5FFF7DA
:1037F000DAFFFFF74DFF10BD70B503210E20FFF774
:10380000BBFF0446204606F0F3FA06463748016837
:10381000304606F0ECF8054606F008FB84B2204678
:1038200006F0E6FA05462E480168284606F042FBF7
:1038300003D200202F49087013E0204606F0D8FA82
:10384000064627480168304606F0CBF8054606F0E4
:10385000EDFA2849087008460078642801DD6420E4
:10386000087003210F20FFF787FF0446204606F06B
:10387000BFFA06461D480168304606F0B8F805460E
:1038800006F0D4FA84B2204606F0B2FA054614488F
:103890000168284606F00EFB03D200201649087086
:1038A00013E0204606F0A4FA06460D4801683046AB
:1038B00006F097F8054606F0B9FA0F490870084671
:1038C0000078642801DD642008700A4800780B49FC
:1038D000087009480078487070BD00000000404042
:1038E000440300200000C84200CC0D4140030020EA
:1038F0000070A74048030020490300203C0300203B
:103900003EB505460C460121082002F016FEADF832
:103910000450ADF800400020ADF80600ADF80200FC
:1039200069469C4802F034FF00220121994803F0C7
:10393000A6FA0021974803F087FA3EBD7FB50546F9
:103940000C460121102002F0F8FDADF80850ADF84A
:1039500004400020ADF80A00ADF8060001A98E4829
:1039600002F016FF012211468B4803F088FA4FF44B
:10397000E06001F09BFA36208DF8000000208DF801
:10398000010003208DF8020001208DF80300684635
:1039900001F091FA0121804803F056FA7FBD10B57D
:1039A00001217D4803F019FD38B101217A4803F067
:1039B00025FDFFF729FCFFF790FC10BD7FB50546FC
:1039C0000C460121480302F0ABFDADF80850ADF8FC
:1039D00004400020ADF80A00ADF806008DF80C0098
:1039E00001A96E4802F0D4FE01216C4803F0F2FCFC
:1039F00001224121694803F042FA2C208DF8000091
:103A000004208DF801008DF8020001208DF80300DC
:103A1000684601F050FA0021604803F015FA7FBDB6
:103A200070B50026002501215C4803F0D6FC002873
:103A30007DD00121594803F0E1FC0021574803F0F3
:103A400003FA0020564908700320FFF754FD1420A4
:103A5000FDF78EFEFDF74DFF1E210846FDF7FDFF29
:103A60006420FDF785FEFDF744FF0820FFF7ABFC5F
:103A70004C4908700720FFF7A6FC4B4908704948DD
:103A80000078FF2808D1084600787F2804D14748ED
:103A90000078401C454908701E210846FDF7DDFFEF
:103AA0006420FDF765FEFDF724FF414800780128FA
:103AB00045D1002440E01E210846FDF7CEFF6420DA
:103AC000FDF756FEFDF715FF4FF4FA70FDF750FEB7
:103AD00038490C2004F082FF0646012E2BD13DBB55
:103AE00035490860C820FDF743FE00203349C1F87E
:103AF000B001C820FDF73CFE01202F490860C82016
:103B0000FDF736FE00202D49C1F8B001C820FDF7B1
:103B10002FFE012028490860C820FDF729FE00205B
:103B20002649C1F8B0016D1C1021224801E030E0A7
:103B300001E005F0DFFB641C062CBCDB08E01E2165
:103B40000846FDF78AFFC820FDF712FEFDF7D1FEFB
:103B50001648007880B9FFF7D4FC002018490860A7
:103B60000F4908701E210846FDF777FFFA20FDF780
:103B7000FFFDFDF7BEFE09E00120094908700020A5
:103B80000A4908700121880703F05EF900200849FE
:103B9000087070BD000C004000100040003401406F
:103BA0006B000020A8010020A90100205D02002078
:103BB0004007002020150020B081224200802242D0
:103BC0003C06002010B50120FDF7D2FD10BD10B558
:103BD0004FF4FA70FDF7CCFD10BD10B54FF4E13095
:103BE000FDF722FDEC48806940F02000EA49886139
:103BF000EA48006820F47020E84908600846006838
:103C000040F440300860E5480C30006840F0100097
:103C1000E2490C31086010BD10B5002400BFE04837
:103C2000008800F020000028F9D0DD4803F02AFDCC
:103C3000C4B2204610BD70B505460E46002404E00F
:103C4000FFF7EAFF2855601CC4B2B442F8DB70BD30
:103C500010B51020D149103108600A20FDF788FD09
:103C60001020CE49143108606420FDF781FD10203A
:103C7000CA491031086000BFFFF7CEFF5528FBD0BE
:103C80000321C848FFF7D7FFC64880784A2801D1EA
:103C9000012010BD0020FCE70120C3490870C34982
:103CA000087070470020C0490870C049087070470C
:103CB00010B504462046FDF710FD10BD70B5054651
:103CC0000E46002403E0285DFFF7F2FF641CB442B7
:103CD000F9D370BD7CB50546284605F029FE04469B
:103CE000FD208DF8000000208DF80100A01CC0B25E
:103CF0008DF8020001208DF8030000208DF80400EB
:103D000005216846FFF7DAFF21462846FFF7D6FF70
:103D10000421A448FFF78FFF03E00421A148FFF727
:103D20008AFFA048C0784128F7D104219D48FFF7B9
:103D300082FF03E004219B48FFF77DFF9948C0788C
:103D40004F28F7D17CBD7CB50546284605F0F0FD2F
:103D50000446FD208DF8000000208DF80100A01C15
:103D6000C0B28DF8020061208DF8030004208DF8A8
:103D7000040005216846FFF7A1FF21462846FFF70A
:103D80009DFF00218748FFF756FF7CBD1CB5044608
:103D9000FD208DF8000000208DF8010002208DF834
:103DA000020010208DF803008DF8044000208049A7
:103DB000C87005216846FFF781FF04217948FFF7A5
:103DC0003AFF7848C07841280CD103217548FFF7A5
:103DD00032FF74480078FC2804D172488178744816
:103DE000FFF729FF1CBD08B5FD208DF8000000205D
:103DF0008DF8010001208DF8020011208DF80300DC
:103E000004216846FFF75AFF04216648FFF713FFB5
:103E100008BD10B5044666480078082821D2DFE8BE
:103E200000F02004050F13171C1800BF614951F85A
:103E300024105F4AD27851F82200FFF74BFF10E0C0
:103E40005DA0FFF747FF0CE05FA0FFF743FF08E02E
:103E500000BF61A0FFF73EFF03E062A0FFF73AFF5B
:103E600000BF00BF10BD1CB50446FD208DF800004A
:103E700000208DF8010002208DF8020051208DF8FD
:103E800003008DF8044005216846FFF717FF042161
:103E90004448FFF7D0FE4348C07841280AD10421A6
:103EA0004048FFF7C8FE3F48C078212802D151485A
:103EB000FFF749FF1CBD10B53D480078082869D2BE
:103EC000DFE810F0680008008102890296026904A8
:103ED00071047A043648C07824285CD2DFE800F008
:103EE0001217232F3A454FFDFBFAF9F8F7F6F5F4D0
:103EF000F3F2F1F0EFEEEDECEBEAE9E8E7E6E5E40A
:103F0000E3E2E1E004213C48FFF7D8FE52E232212F
:103F10000846FDF703FE39A0FFF7DCFE0421364812
:103F2000FFF7CCFE46E232210846FDF70EFE37A031
:103F3000FFF7D0FE04213048FFF7C0FE3AE25020E0
:103F4000FDF71DFE39A0FFF7C5FE04212A48FFF743
:103F5000B5FE2FE25020FDF729FE3CA0FFF7BAFE88
:103F600004212548FFF7AAFE24E2FDF74CFE3FA0FE
:103F7000FFF7B0FE04212048FFF7A0FE1AE232202E
:103F8000FDF72CFE3FA0FFF7A5FE04211A48FFF71E
:103F900095FE0FE2FEE305E200100240001401402E
:103FA00000440040380500209C0300209D030020B1
:103FB0003C05002010050020D3C3BBA7BEB2D2F43D
:103FC000B3ACCAB100000000D3C3BBA7D3EFD2F497
:103FD000B3ACCAB100000000CAB6B1F0BEDCCAB6CC
:103FE00000000000CAB6B1F0C4DAB2BFB4EDCEF33F
:103FF00000000000FD030020CD030020D0A1B3B5D8
:10400000C7B0BDF8D2D1CDEAB3C90000D0A1B3B5D5
:10401000BAF3CDCBD2D1CDEAB3C9A3ACB5C8B4FD08
:10402000CFC2D2BBB2BDD6B8C1EE0000D0A1B3B5ED
:10403000D7F3D7AACDEAB3C9A3ACB5C8B4FDCFC2F4
:10404000D2BBB2BDD6B8C1EE00000000D0A1B3B55E
:10405000D3D2D7AACDEAB3C9A3ACB5C8B4FDCFC2F9
:10406000D2BBB2BDD6B8C1EE00000000D2D1CDA304
:10407000B3B5A3ACB5C8B4FDCFC2D2BBB2BDD6B840
:10408000C1EE0000D1B0BCA3D2D1CDEAB3C9A3AC7C
:10409000B5C8B4FDCFC2D2BBB2BDD6B8C1EE000028
:1040A00074E167E15AE14DE141E135E129E11DE1CA
:1040B0000FE102E1F4E0E7E0DEE0D1E0C4E0B7E0E8
:1040C000A2E095E080E071E064E058E04BE03EE083
:1040D00031E024E018E00CE0FFE70621C848FEF7D5
:1040E0003AFAC8A0FFF7F6FD0421CE48FFF7E6FD37
:1040F00060E1012005F048FBCBA0FFF7EBFD0421B8
:10410000C848FFF7DBFD55E1002005F03DFBCDA0E1
:10411000FFF7E0FD0421C348FFF7D0FD4AE1082185
:10412000CF48FFF7FDF9CFA0FFF7D4FD0421BD482C
:10413000FFF7C4FD3EE10821D148FFF7F1F9D1A016
:10414000FFF7C8FD0421B748FFF7B8FD32E10821A9
:10415000D448FFF7E5F9D4A0FFF7BCFD0421B1482E
:10416000FFF7ACFD26E10821D748FFF7D9F9D7A022
:10417000FFF7B0FD0421AB48FFF7A0FD1AE10020D6
:10418000DB490860DBA0FFF7A5FD0421A548FFF788
:1041900095FD0FE10020D649091F0860DEA0FFF75A
:1041A00099FD04219F48FFF789FD03E10120D049D3
:1041B0000860E249C1F8B801E1A0FFF78BFD0421D6
:1041C0009848FFF77BFDF5E00020C94908390860F1
:1041D000E3A0FFF77FFD4FF4FA70FDF7C9FA012065
:1041E000D649C1F8B40104218E48FFF767FDE1E02C
:1041F0000120BF4908390860E1A0FFF76BFD0421E9
:104200008848FFF75BFDD5E00621E548FEF7A3F9F6
:104210004FF4FA70FDF7ACFA0621E248FEF79BF97D
:10422000E1A0FFF757FD04217E48FFF747FDC1E0FD
:104230000421E448FEF78FF9E3A0FFF74BFD0421CA
:104240007848FFF73BFDB5E00421E848FEF783F925
:10425000E7A0FFF73FFD04217248FFF72FFDA9E01B
:104260000421EB48FEF777F9EAA0FFF733FD0421BC
:104270006C48FFF723FD9DE0F2A0FFF72BFD042122
:104280006848FFF71BFD95E0F9A0FFF723FD032128
:10429000012005F053F804216248FFF70FFD89E083
:1042A000F6A0FFF717FD04215E48FFF707FD002089
:1042B000F8490870F84908707CE00A215020FDF7A1
:1042C0002DFCF6A0FFF706FD04215648FFF7F6FC8B
:1042D00070E004215348FFF7F1FC0A215020FDF75C
:1042E00034FCAFF2D820FFF7F5FC63E05020FDF777
:1042F00046FCF2A0FFF7EEFC04214A48FFF7DEFC83
:1043000058E05020FDF752FCF4A0FFF7E3FC042135
:104310004448FFF7D3FC4DE0FDF775FCAFF2B42045
:10432000FFF7D8FC04213F48FFF7C8FC42E03220E9
:10433000FDF754FCF1A0FFF7CDFC04213948FFF74D
:10434000BDFC37E00221012004F0F8FFF3A0FFF7E5
:10435000C1FC04213348FFF7B1FC2BE0022100200F
:1043600004F0ECFFF0A0FFF7B5FC04212D48FFF7A7
:10437000A5FC1FE00421012004F0E0FFEDA0FFF701
:10438000A9FC04212748FFF799FC13E00421002031
:1043900004F0D4FFEAA0FFF79DFC04212148FFF7B9
:1043A0008DFC07E0E9A0FFF795FC04211D48FFF70D
:1043B00085FC00BF00BF0420E949086004211948BA
:1043C000FFF77CFC09E2E1A0FFF784FC042115481B
:1043D000FFF774FC01E2E3A0FFF77CFC0020AD498D
:1043E0000870AD49087004210E48FFF767FCF4E13E
:1043F000E2A0FFF76FFC04210A48FFF75FFCECE145
:1044000058030020B1A8BEAFC6F7D2D1B4F2BFAAFC
:10441000A3ACB5C8B4FDCFC2D2BBB2BDD6B8C1EE55
:1044200000000000CD030020B5C0D5A2D2D1B4F267
:10443000BFAAA3ACB5C8B4FDCFC2D2BBB2BDD6B87B
:10444000C1EE0000B5C0D5A2D2D1B9D8B1D5A3ACC8
:10445000B5C8B4FDCFC2D2BBB2BDD6B8C1EE000064
:10446000700300204C4544CFD4CABED2D1BFAAA30A
:10447000ACB5C8B4FDCFC2D2BBB2BDD6B8C1EE0098
:1044800078030020BCC6CAB1CFB5CDB3D2D1B4F247
:10449000BFAAA3ACB5C8B4FDCFC2D2BBB2BDD6B81B
:1044A000C1EE000080030020BCC6CAB1CFB5CDB3B9
:1044B000D2D1B9D8B1D5A3ACB5C8B4FDCFC2D2BBA7
:1044C000B2BDD6B8C1EE0000880300204C4544CFF1
:1044D000D4CABEBEE0C0EBD2D1CDEAB3C9A3ACB55D
:1044E000C8B4FDCFC2D2BBB2BDD6B8C1EE00000089
:1044F000BC012242D7F3B2E0CCE1CABEB5C6D2D1EC
:10450000B4F2BFAAA3ACB5C8B4FDCFC2D2BBB2BD92
:10451000D6B8C1EE00000000D3D2B2E0CCE1CABEF2
:10452000B5C6D2D1B4F2BFAAA3ACB5C8B4FDCFC250
:10453000D2BBB2BDD6B8C1EE0000000000002242DE
:10454000CCE1CABEB5C6D2D1B9D8B1D5A3ACB5C835
:10455000B4FDCFC2D2BBB2BDD6B8C1EE00000000E0
:10456000B7E4C3F9C6F7D2D1B4F2BFAAA3ACB5C8B9
:10457000B4FDCFC2D2BBB2BDD6B8C1EE00000000C0
:10458000B7E4C3F9C6F7D2D1B9D8B1D5A3ACB5C891
:10459000B4FDCFC2D2BBB2BDD6B8C1EE00000000A0
:1045A0009003002096030020B3B5C5C6D2D1CFD466
:1045B000CABEA3ACB5C8B4FDCFC2D2BBB2BDD6B8DB
:1045C000C1EE000054030020CBEDB5C0C5C5B7E770
:1045D000CFB5CDB3D2D1B4F2BFAAA3ACB5C8B4FDA8
:1045E000CFC2D2BBB2BDD6B8C1EE00004C03002092
:1045F000CDBCC6ACB7ADD2B3CDEAB3C9A3ACB5C8D8
:10460000B4FDCFC2D2BBB2BDD6B8C1EE000000002F
:1046100097070020B5F75B3D7469616F325DB9E2C1
:10462000B5B55B3D64616E67335DCEBBD2D1BCD3A3
:1046300031A3ACB5C8B4FDCFC2D2BBB2BDD6B8C1F0
:10464000EE000000BBB6D3ADCAB9D3C3B1B1BEA9A9
:10465000B0D9BFC6C8DA5B3D726F6E67325DB4B465
:10466000D3EFD2F4D6C7C4DCD0A1B3B500000000AC
:10467000D4ADB5D8B5F4CDB700000000BAC3B5C409
:10468000A3ACBDE1CAF8B1BEB4CED3EFD2F4BFD86B
:10469000D6C600009C0300209D03002020D0A1B3BB
:1046A000B5C7B0BDF8D2D1CDEAB3C9A3ACB5C8B4D3
:1046B000FDCFC2D2BBB2BDD6B8C1EE00D0A1B3B55A
:1046C000D7F3D7AAD2D1CDEAB3C9A3ACB5C8B4FD4C
:1046D000CFC2D2BBB2BDD6B8C1EE0000D0A1B3B537
:1046E000D3D2D7AAD2D1CDEAB3C9A3ACB5C8B4FD51
:1046F000CFC2D2BBB2BDD6B8C1EE0000D0A1B3B517
:10470000D1B0BCA3D2D1CDEAB3C9A3ACB5C8B4FD76
:10471000CFC2D2BBB2BDD6B8C1EE0000CFF2D3D269
:10472000D7AACDE400000000BDFBD6B9D3D2D7AAEA
:1047300000000000CFF2D7F3D7AACDE400000000BC
:10474000BDFBD6B9D7F3D7AA00000000B6D4B2BBE0
:10475000C6F0A3ACCED2C3BBCCFDC7E500000000C1
:10476000DC030020BDF8C8EBD0DDC3DFA3ACCBE693
:10477000CAB1CEAAC4FAB7FECEF10000C7EBB0B200
:10478000BEB2A3ACC2E9B7B3C4FAD4D9CBB5D2BBDD
:10479000B1E9000018E0EEA0FFF79CFA0421F1480F
:1047A000FFF78CFA19E0AFF2C470FFF793FA042117
:1047B000EC48FFF783FA10E0E5A0FFF78BFA04213D
:1047C000E848FFF77BFA08E0AFF2E070FFF782FA03
:1047D0000421E448FFF772FA00BF00BF10BD2DE9C5
:1047E000F04399B08046894616461F46FD208DF855
:1047F000000015208DF803008DF804808DF80590D9
:104800008DF8066056B900208DF8010004208DF85F
:10481000020007216846FFF751FA1CE001208DF8DD
:104820000700384605F084F8044600208DF80100A2
:10483000601DC0B28DF80200002505E0795D05F12C
:1048400008000DF800106D1CA542F7D304F1080113
:104850006846FFF733FA0421C348FFF7ECF9C24872
:10486000C07841280ED10321BF48FFF7E4F9BE48C4
:104870000078FC2806D1BC488178BC48FFF7DBF9FA
:10488000FFF719FB19B0BDE8F08308B5FD208DF8DE
:10489000000000208DF8010001208DF80200212089
:1048A0008DF8030004216846FFF708FA0421AE489A
:1048B000FFF7C1F9AC48C078412803D10421AC48C6
:1048C000FFF7B9F908BD10B5AA48007800287BD0D9
:1048D000FFF783F9A8A0FFF7FDF9B148006808B910
:1048E000012000E00020AE490860FFF7CEFFA0489D
:1048F000C0784F2878D1FFF765F90521A948FFF75F
:10490000DDF904219848FFF796F99748C0784128C7
:1049100063D103219448FFF78EF993480078FC286F
:1049200062D1914881789148FFF785F98F480078E6
:1049300021284AD121219C48FFF7C0F904218A4847
:10494000FFF779F904218848FFF775F900BF864819
:10495000C0784F28FBD192480068C0439349C1F802
:10496000A801FFF734F927E005219148FFF7A6F9E0
:1049700004217D48FFF75FF97B48C07841281BD1AF
:104980008748001F0068C0438849C1F8A40103217B
:104990007548FFF750F974480078FC280CD180481E
:1049A0000068C0438149C1F8A8016F4881786F4809
:1049B000FFF741F9FFF77FFA7E4800780028D3D14E
:1049C00004217D48FFF77AF90EE07548001D006864
:1049D000C0437649C1F8AC0106E07148001D00688B
:1049E000C0437249C1F8AC0110BD1FB573A103C922
:1049F000CDE9020173A103C9CDE90001002073498B
:104A0000086001206B4908705A49087008216846FF
:104A1000FEF74DF84FF47A70FCF7AAFE4FF47A7067
:104A2000FCF7A6FE3CE005216148FFF747F90421A9
:104A30004D48FFF700F90A216548FFF73FF90421C7
:104A40004948FFF7F8F8082102A8FEF730F8464871
:104A5000C07841281BD15248001F0068C043534909
:104A6000C1F8A40103214048FFF7E5F83E4800786B
:104A7000FC280CD14A480068C0434C49C1F8A80141
:104A8000394881783948FFF7D6F8FFF714FA04213E
:104A90003548FFF7D0F800204649087035490870BE
:104AA0004A4801680068401C484A10600429BADB83
:104AB0001FBD10B50446FFF790F846A0FFF70AF9AE
:104AC000D4B950A301221F210320FFF788FE04213F
:104AD0005348FFF7F3F804212348FFF7ACF803E04D
:104AE00004212148FFF7A7F81F48C0784128F7D1D3
:104AF0004CA0FFF7EFF82AE025E042A301221F2196
:104B00000320FFF76CFE04214548FFF7D7F8042186
:104B10001548FFF790F803E004211348FFF78BF8DE
:104B20001148C0784128F7D110480078012807D1F2
:104B30000E48C078192803D141A0FFF7CBF802E056
:104B400046A0FFF7C7F81B4800780028D5D110BD54
:104B5000B6D4B2BBC6F0A3ACC7EBD4D9CBB5D2BBED
:104B6000B1E90000CD030020380500203C050020FD
:104B7000420500209D030020D3EFD2F4CAB6B1F065
:104B8000B2E2CAD42CC7EBB7A2D3EFD2F4BBBDD0EC
:104B9000D1B4CAA3ACD3EFD2F4BCDDCABB000000D1
:104BA000A88122429E030020A70300200080224209
:104BB000C80300209C030020A3030020559020017F
:104BC000000021BB55901001000011BBDC03002048
:104BD000D1030020D6C7C4DCD3EFD2F4C8FDBACFCE
:104BE000D2BB5B3D7969315DB2E2CAD4A3ACC7EBFD
:104BF000B7A2BBBDD0D1B4CA20D3EFD2F4BCDDCABA
:104C0000BB000000C4A3BFE9BBBDD0D1B3C9B9A6E6
:104C1000A3ACC7EBB7A2D3EFD2F4D6B8C1EE000075
:104C2000E0030020B1BEB4CEC8FDBACFD2BB5B3D1D
:104C30007969315DB2E2CAD4CDEAB3C9000000009F
:104C4000BFC9B0B4CFC2B0B4BCFC5333D4D9B4CE16
:104C5000BDF8C8EBB2E2CAD400000000C7EBD4D95B
:104C6000B4CEBBBDD0D1C4A3BFE920D3EFD2F4BC36
:104C7000DDCABB0010B58448007840B9FCF739FEA6
:104C8000002082490870012081490870F6E0002068
:104C90007F4908707C480078E72807D07A48007878
:104CA000F72803D078480078EF280BD179480068BE
:104CB000C0F114007849086076480068C0F114001B
:104CC0007649086076480078022853D06E4800780C
:104CD000F32803D06C480078FB280ED16D4800689B
:104CE000643040426C4908606A480068C0F1640062
:104CF0006A49086000206A49087063480078F9280A
:104D000003D061480078FD280ED162480068643005
:104D10004042614908605F480068C0F164005F4933
:104D2000086000205E49087057480078FC280ED1C2
:104D30005848006864304042574908605548006848
:104D4000C0F16400554908600020554908704E487C
:104D50000078FE280ED14F480068643040424E492A
:104D600008604C480068C0F178004C490860012098
:104D70004B4908704A480078012853D042480078CF
:104D8000CF280ED143480068643040424349086050
:104D900040480068C0F164003F4908600020404975
:104DA0000870394800789F2803D037480078DF28FA
:104DB0000ED13848006864304042384908603548B0
:104DC0000068C0F16400344908600020344908706C
:104DD0002D4800783F2803D02B480078BF280ED1FB
:104DE0002C480068643040422C490860294800681B
:104DF000C0F1640028490860002029490870224851
:104E000000787F280ED1234800686430404223494F
:104E1000086020480068C0F178001F49086002203F
:104E20001F49087018480078FF2817D11C480078DF
:104E3000B8B91C4801680068401C1A4A1060B1F5F6
:104E40007A7F0EDD002011460860FCF752FD00203D
:104E50001549087004200E49087002E0002011492D
:104E600008600A48007808B9012000E0002028B94D
:104E70000A48016808480068FCF7EFFD0A48007816
:104E800008B9FEF73EFB10BDA801002096050020E2
:104E90006A000020780000208000002084000020AC
:104EA000880000207C0000206B0000203149014375
:104EB000314A1160704770B5002100230F22C47879
:104EC00004B32D4C246804F4E064C4F5E064210AC2
:104ED000C1F10403CA40447804FA03F18478144011
:104EE00021430901254C0678A155047804F01F05DB
:104EF0000124AC4005786D11AD0005F1E025C5F841
:104F0000004109E0047804F01F050124AC401C4D69
:104F10000678761145F8264070BD1A4A0A400243C9
:104F2000154B1B1F1A60704739B1134A121D1268C6
:104F30000243114B1B1D1A6006E00F4A121D126836
:104F400082430D4B1B1D1A607047042808D14FF097
:104F5000E021096941F004014FF0E022116107E00E
:104F60004FF0E021096921F004014FF0E0221161C6
:104F7000704700000000FA050CED00E000E400E0DE
:104F800080E100E080FFFF1F10B50446FA4884422C
:104F900008D10121401501F0DDFA0021601501F072
:104FA000D9FA17E0F548844208D10121001501F033
:104FB000D1FA0021201501F0CDFA0BE0F04884422F
:104FC00008D10121C80301F0C5FA00214FF40040C7
:104FD00001F0C0FA10BD30B5024600200023506831
:104FE000E84C20400D790C6844EA052420435060C9
:104FF0009068E54C2040D1E902542C434D7944EAB5
:10500000450420439060D06A20F470000C7C641E3C
:10501000E4B2234340EA0350D06230BD0021016076
:10502000017141718160C16001210174704721B13A
:10503000826842F00102826003E0826822F001028D
:105040008260704721B1826842F48072826003E01E
:10505000826822F480728260704710B50023CBB260
:105060001AB144681C43446002E044689C434460B5
:1050700010BD816841F00801816070470146002041
:105080008A6802F008020AB1012000E0002070479F
:10509000816841F0040181607047014600208A6800
:1050A00002F004020AB1012000E00020704721B1A3
:1050B000826842F4A002826003E0826822F4A002C7
:1050C00082607047014600208A6802F480020AB1BB
:1050D000012000E00020704710B50A46002100239F
:1050E000416821F46041531E41EA4331416010BDE3
:1050F00021B1426842F40062426003E0426822F457
:10510000006242607047F0B504460D460020002161
:10511000092D11DDE068A5F10A0606EB4607072612
:1051200006FA07F18843A5F10A0606EB460603FADC
:1051300006F10843E0600CE0206905EB450707260F
:1051400006FA07F1884305EB450603FA06F1084322
:105150002061072A0FDA606B561E06EB86071F26B2
:1051600006FA07F18843561E06EB860605FA06F195
:105170000843606322E00D2A0FDA206BD61F06EB8E
:1051800086071F2606FA07F18843D61F06EB860618
:1051900005FA06F10843206310E0E06AA2F10D066B
:1051A00006EB86071F2606FA07F18843A2F10D06D3
:1051B00006EB860605FA06F10843E062F0BD21B170
:1051C000826842F48012826003E0826822F48012D6
:1051D000826070470146C86C80B2704766484C30A8
:1051E0000068704721B1426842F48062426003E087
:1051F000426822F480624260704721B1426842F402
:105200008052426003E0426822F48052426070475C
:105210000A460021816821F4E04111438160704712
:1052200021B1826842F40042826003E0826822F485
:1052300000428260704721B1826842F402128260AB
:1052400003E0826822F40212826070470146002067
:105250008A6802F400120AB1012000E000207047C1
:10526000F0B504461546002000220026092911DD6C
:10527000E068A1F10A0707EB470C072707FA0CF2D1
:105280009043A1F10A0707EB470703FA07F210431F
:10529000E0600CE0206901EB410C072707FA0CF2F3
:1052A000904301EB410703FA07F210432061A06B22
:1052B000C0F30156EF1C06F1010CA7EB0C0707EB3E
:1052C000870C1F2707FA0CF29043EF1C06F1010C24
:1052D000A7EB0C0707EB870701FA07F21043A0635F
:1052E000F0BD10B50A4600210023816B21F4401166
:1052F000531E41EA0351816310BD08B5002300939A
:105300000090009B0B440093009B1A6008BD08B5F9
:10531000024600200090009201F12800009B1844F2
:1053200000900098006880B208BD0A4600214168DC
:10533000164B1940114341607047416282627047C9
:105340000A460021416821F01F0111434160704766
:1053500040B109490831096841F40001064A0832A0
:10536000116007E004490831096821F40001024A8C
:1053700008321160704700000024014000280140FD
:10538000003C0140FFFEF0FFFDF7F1FFFFFD3FFF96
:105390000246002013680B400BB1012000E0002002
:1053A0007047CA430260704770B502460020002370
:1053B00000240B125568CEB205EA060415681D409C
:1053C00015B10CB1012000E0002070BD00220A12CE
:1053D000D34303607047000010B50446FE48844282
:1053E00009D10121480601F0C2F800214FF00070F8
:1053F00001F0BDF808E00121880601F0B8F80021AD
:105400004FF0806001F0B3F810BD30B502460020C7
:105410000023146824F002041460146844F00104AA
:10542000146000E05B1C546804F001041CB94FF6E2
:10543000FF74A342F6D1546804F001040CB90020B3
:105440006CE08C79012C04D1146844F08004146061
:1054500003E0146824F080041460CC79012C04D19A
:10546000146844F04004146003E0146824F040041D
:1054700014600C7A012C04D1146844F020041460E8
:1054800003E0146824F0200414604C7A012C04D149
:10549000146844F01004146003E0146824F010044D
:1054A00014608C7A012C04D1146844F00804146050
:1054B00003E0146824F008041460CC7A012C04D1B1
:1054C000146844F00404146003E0146824F0040435
:1054D00014608C78A407CD7844EA05640D7944EA19
:1054E00005444D7944EA05540D886D1E2C43D46162
:1054F000146824F001041460002300E05B1C54686D
:1055000004F001041CB14FF6FF74A342F6D15468B5
:1055100004F001040CB1002000E0012030BD10B502
:105520000021837A012202FA03F1AC4A126842F0A8
:105530000102AA4B1A60A94A1C3212688A43A74B7F
:105540001C331A60027BCAB9A44A0C3212688A431F
:10555000A24B0C331A604288C38842EA03439F4A35
:105560004032847A42F834300288838842EA034326
:105570009A4A4032847A02EBC4025360027B012AC9
:1055800019D1964A0C3212680A43944B0C331A60B4
:105590004288038842EA0343904A4032847A42F8C0
:1055A0003430C288838842EA03438C4A4032847A8A
:1055B00002EBC4025360C27A3AB9884A121D1268DB
:1055C0008A43864B1B1D1A6006E0844A121D12682E
:1055D0000A43824B1B1D1A60028932B97F4A14327A
:1055E00012688A437D4B14331A600289012A06D15E
:1055F0007A4A143212680A43784B14331A60427B99
:10560000012A06D1754A1C3212680A43734B1C33B7
:105610001A60724A126822F00102704B1A6010BDC3
:1056200000218171C17101724172012181720021D9
:10563000C1728170C1700321017102214171012188
:10564000018070476549096841F00101634A1160B2
:105650001146096843F60E729143604A1160114683
:10566000096841EA002111601146096821F0010131
:105670001160704721B1026842F48032026003E099
:10568000026822F4803202607047E1B1026842F0A1
:10569000800202604FF4C272125842F480734FF4D9
:1056A000C27213504FF4CA72125842F480734FF40E
:1056B000CA7213504FF4D272125842F480734FF4EE
:1056C000D27213501BE0026822F0800202604FF495
:1056D000C272125822F480734FF4C27213504FF406
:1056E000CA72125822F480734FF4CA7213504FF4E6
:1056F000D272125822F480734FF4D2721350704752
:1057000010B502460020936803F08063B3F1806F08
:1057100000D110E0936803F00063B3F1006F01D192
:10572000012008E0936803F08053B3F1805F01D15A
:10573000022000E00420042879D002F5C07303EBB6
:1057400000131B6803F0010402F5C07303EB0013A0
:105750001C600B7A7BB94B7A0C8843EA445302F500
:10576000C07404EB00142468234302F5C07404EBF6
:105770000014236010E00B7A4C6843EAC4034C7AAF
:10578000234302F5C07404EB00142468234302F59C
:10579000C07404EB001423608B7A03F00F038B7248
:1057A00002F5C07303EB00135B6823F00F0402F5EE
:1057B000C07303EB00135C6002F5C07303EB0013CE
:1057C0005B688C7A234302F5C07404EB00146360B9
:1057D0008B7B1C064B7B03E00064004000660040AE
:1057E00044EA03440B7B44EA0323CC7A234302F5C7
:1057F000C07404EB0014A3608B7C1C064B7C44EA51
:1058000003440B7C44EA0323CC7B234302F5C0749E
:1058100004EB0014E36002F5C07303EB00131B6894
:1058200043F0010402F5C07303EB00131C6010BDCC
:1058300010B50246002321B1012907D002290FD15A
:1058400009E09068F94C00EA04030BE09068F84C1A
:1058500000EA040306E09068F64C00EA040301E065
:10586000002300BF00BFF44C181BA34216D007DC76
:1058700083B16FF08060184470B1022818D111E034
:10588000B0F5007F10D0ED4C204448B1B0F5003F9A
:105890000ED10BE002230DE000230BE0002309E012
:1058A000002307E0012305E0012303E0012301E0D9
:1058B000002300BF00BFD8B210BD21B1012907D01D
:1058C00002290FD109E0826842F0800282600AE07A
:1058D000826842F40042826005E0826842F400027D
:1058E000826000E000BF00BF704710B500F5D873BC
:1058F00003EB01131B6803F004031372137A53B90B
:1059000000F5D87303EB01131B6840F2FF7404EA3F
:105910005353136009E000F5D87303EB01131B68C0
:105920006FF0604404EAD303536000F5D87303EBCF
:1059300001131B6803F00203537200F5D87303EBE5
:1059400001135B6803F00F03937200F5D87303EB48
:1059500001135B681B0AD37400F5D87303EB0113C2
:105960009B68D37200F5D87303EB01139B681C0A84
:10597000147300F5D87303EB01139B681C0C54736C
:1059800000F5D87303EB01139B681B0E937300F5AE
:10599000D87303EB0113DB68D37300F5D87303EB03
:1059A0000113DB681C0A147400F5D87303EB0113B0
:1059B000DB681C0C547400F5D87303EB0113DB682F
:1059C0001B0E937421B9C36843F02003C36003E046
:1059D000036943F02003036110BD21B9C26842F09E
:1059E0002002C26003E0026942F0200202617047B7
:1059F0000246002019B9D36803F0030006E001292C
:105A000003D1136903F0030000E00020704710B5D4
:105A100002460B4600204FF6FF71BBB9146824F014
:105A2000020444F00104146000E0491E546804F0CC
:105A30000304012C01D00029F7D1546804F00304B9
:105A4000012C01D0002032E0012030E0012B13D1E5
:105A5000146824F00304146000E0491E546804F044
:105A600003040CB10029F8D1546804F003040CB10C
:105A700000201CE001201AE0022B17D1146824F04A
:105A8000010444F00204146000E0491E546804F06C
:105A90000304022C01D00029F7D1546804F0030458
:105AA000022C01D0002002E0012000E0002010BD07
:105AB000014600200A6822F0010242F002020A6058
:105AC0004A6802F00302022A00D101207047014611
:105AD0004FF6FF7200200B6823F002030B6000E01A
